{
  "_format": "hh-sol-artifact-1",
  "contractName": "FractionalNFTMarketplace",
  "sourceName": "contracts/FractionalNFTMarketplace.sol",
  "abi": [
    {
      "inputs": [
        {
          "internalType": "address",
          "name": "_coreContract",
          "type": "address"
        }
      ],
      "stateMutability": "nonpayable",
      "type": "constructor"
    },
    {
      "inputs": [
        {
          "internalType": "address",
          "name": "target",
          "type": "address"
        }
      ],
      "name": "AddressEmptyCode",
      "type": "error"
    },
    {
      "inputs": [
        {
          "internalType": "address",
          "name": "account",
          "type": "address"
        }
      ],
      "name": "AddressInsufficientBalance",
      "type": "error"
    },
    {
      "inputs": [],
      "name": "FailedInnerCall",
      "type": "error"
    },
    {
      "inputs": [
        {
          "internalType": "address",
          "name": "owner",
          "type": "address"
        }
      ],
      "name": "OwnableInvalidOwner",
      "type": "error"
    },
    {
      "inputs": [
        {
          "internalType": "address",
          "name": "account",
          "type": "address"
        }
      ],
      "name": "OwnableUnauthorizedAccount",
      "type": "error"
    },
    {
      "inputs": [
        {
          "internalType": "address",
          "name": "token",
          "type": "address"
        }
      ],
      "name": "SafeERC20FailedOperation",
      "type": "error"
    },
    {
      "anonymous": false,
      "inputs": [
        {
          "indexed": true,
          "internalType": "uint256",
          "name": "propertyId",
          "type": "uint256"
        },
        {
          "indexed": false,
          "internalType": "uint256",
          "name": "listingId",
          "type": "uint256"
        }
      ],
      "name": "ListingCancelled",
      "type": "event"
    },
    {
      "anonymous": false,
      "inputs": [
        {
          "indexed": false,
          "internalType": "uint256",
          "name": "newFee",
          "type": "uint256"
        }
      ],
      "name": "ListingFeeUpdated",
      "type": "event"
    },
    {
      "anonymous": false,
      "inputs": [
        {
          "indexed": true,
          "internalType": "address",
          "name": "previousOwner",
          "type": "address"
        },
        {
          "indexed": true,
          "internalType": "address",
          "name": "newOwner",
          "type": "address"
        }
      ],
      "name": "OwnershipTransferred",
      "type": "event"
    },
    {
      "anonymous": false,
      "inputs": [
        {
          "indexed": true,
          "internalType": "uint256",
          "name": "propertyId",
          "type": "uint256"
        },
        {
          "indexed": false,
          "internalType": "address",
          "name": "seller",
          "type": "address"
        },
        {
          "indexed": false,
          "internalType": "uint256",
          "name": "shareAmount",
          "type": "uint256"
        },
        {
          "indexed": false,
          "internalType": "uint256",
          "name": "pricePerShare",
          "type": "uint256"
        },
        {
          "indexed": false,
          "internalType": "uint256",
          "name": "listingId",
          "type": "uint256"
        }
      ],
      "name": "ShareListed",
      "type": "event"
    },
    {
      "anonymous": false,
      "inputs": [
        {
          "indexed": true,
          "internalType": "uint256",
          "name": "propertyId",
          "type": "uint256"
        },
        {
          "indexed": false,
          "internalType": "address",
          "name": "buyer",
          "type": "address"
        },
        {
          "indexed": false,
          "internalType": "address",
          "name": "seller",
          "type": "address"
        },
        {
          "indexed": false,
          "internalType": "uint256",
          "name": "shareAmount",
          "type": "uint256"
        },
        {
          "indexed": false,
          "internalType": "uint256",
          "name": "totalPrice",
          "type": "uint256"
        },
        {
          "indexed": false,
          "internalType": "uint256",
          "name": "listingId",
          "type": "uint256"
        }
      ],
      "name": "SharePurchased",
      "type": "event"
    },
    {
      "inputs": [
        {
          "internalType": "uint256",
          "name": "propertyId",
          "type": "uint256"
        },
        {
          "internalType": "uint256",
          "name": "listingId",
          "type": "uint256"
        }
      ],
      "name": "cancelListing",
      "outputs": [],
      "stateMutability": "nonpayable",
      "type": "function"
    },
    {
      "inputs": [],
      "name": "coreContract",
      "outputs": [
        {
          "internalType": "contract FractionalNFTCore",
          "name": "",
          "type": "address"
        }
      ],
      "stateMutability": "view",
      "type": "function"
    },
    {
      "inputs": [
        {
          "internalType": "uint256",
          "name": "propertyId",
          "type": "uint256"
        },
        {
          "internalType": "uint256",
          "name": "shareAmount",
          "type": "uint256"
        },
        {
          "internalType": "uint256",
          "name": "pricePerShare",
          "type": "uint256"
        }
      ],
      "name": "listShareForSale",
      "outputs": [],
      "stateMutability": "payable",
      "type": "function"
    },
    {
      "inputs": [],
      "name": "listingFee",
      "outputs": [
        {
          "internalType": "uint256",
          "name": "",
          "type": "uint256"
        }
      ],
      "stateMutability": "view",
      "type": "function"
    },
    {
      "inputs": [],
      "name": "owner",
      "outputs": [
        {
          "internalType": "address",
          "name": "",
          "type": "address"
        }
      ],
      "stateMutability": "view",
      "type": "function"
    },
    {
      "inputs": [
        {
          "internalType": "uint256",
          "name": "",
          "type": "uint256"
        },
        {
          "internalType": "uint256",
          "name": "",
          "type": "uint256"
        }
      ],
      "name": "propertyShareListings",
      "outputs": [
        {
          "internalType": "address",
          "name": "seller",
          "type": "address"
        },
        {
          "internalType": "uint256",
          "name": "shareAmount",
          "type": "uint256"
        },
        {
          "internalType": "uint256",
          "name": "pricePerShare",
          "type": "uint256"
        },
        {
          "internalType": "bool",
          "name": "active",
          "type": "bool"
        }
      ],
      "stateMutability": "view",
      "type": "function"
    },
    {
      "inputs": [
        {
          "internalType": "uint256",
          "name": "propertyId",
          "type": "uint256"
        },
        {
          "internalType": "uint256",
          "name": "listingId",
          "type": "uint256"
        },
        {
          "internalType": "uint256",
          "name": "sharesToPurchase",
          "type": "uint256"
        }
      ],
      "name": "purchaseShares",
      "outputs": [],
      "stateMutability": "payable",
      "type": "function"
    },
    {
      "inputs": [],
      "name": "renounceOwnership",
      "outputs": [],
      "stateMutability": "nonpayable",
      "type": "function"
    },
    {
      "inputs": [
        {
          "internalType": "address",
          "name": "newOwner",
          "type": "address"
        }
      ],
      "name": "transferOwnership",
      "outputs": [],
      "stateMutability": "nonpayable",
      "type": "function"
    },
    {
      "inputs": [
        {
          "internalType": "uint256",
          "name": "newFee",
          "type": "uint256"
        }
      ],
      "name": "updateListingFee",
      "outputs": [],
      "stateMutability": "nonpayable",
      "type": "function"
    },
    {
      "inputs": [],
      "name": "withdrawFees",
      "outputs": [],
      "stateMutability": "nonpayable",
      "type": "function"
    }
  ],
  "bytecode": "0x608060405266038d7ea4c680006003553480156200001c57600080fd5b50604051620023be380380620023be833981810160405281019062000042919062000240565b33600073ffffffffffffffffffffffffffffffffffffffff168173ffffffffffffffffffffffffffffffffffffffff1603620000b85760006040517f1e4fbdf7000000000000000000000000000000000000000000000000000000008152600401620000af919062000283565b60405180910390fd5b620000c9816200011260201b60201c565b5080600160006101000a81548173ffffffffffffffffffffffffffffffffffffffff021916908373ffffffffffffffffffffffffffffffffffffffff16021790555050620002a0565b60008060009054906101000a900473ffffffffffffffffffffffffffffffffffffffff169050816000806101000a81548173ffffffffffffffffffffffffffffffffffffffff021916908373ffffffffffffffffffffffffffffffffffffffff1602179055508173ffffffffffffffffffffffffffffffffffffffff168173ffffffffffffffffffffffffffffffffffffffff167f8be0079c531659141344cd1fd0a4f28419497f9722a3daafe3b4186f6b6457e060405160405180910390a35050565b600080fd5b600073ffffffffffffffffffffffffffffffffffffffff82169050919050565b60006200020882620001db565b9050919050565b6200021a81620001fb565b81146200022657600080fd5b50565b6000815190506200023a816200020f565b92915050565b600060208284031215620002595762000258620001d6565b5b6000620002698482850162000229565b91505092915050565b6200027d81620001fb565b82525050565b60006020820190506200029a600083018462000272565b92915050565b61210e80620002b06000396000f3fe60806040526004361061009c5760003560e01c80638da5cb5b116100645780638da5cb5b1461015657806399bc4d9614610181578063dc422d4b1461019d578063e80db5db146101c6578063f2fde38b146101f1578063f79d91ae1461021a5761009c565b8063139989e1146100a157806318bc07ba146100bd578063476343ee146100fd5780636a1b7ecc14610114578063715018a61461013f575b600080fd5b6100bb60048036038101906100b6919061161c565b610243565b005b3480156100c957600080fd5b506100e460048036038101906100df919061166f565b6106ad565b6040516100f4949392919061171a565b60405180910390f35b34801561010957600080fd5b50610112610727565b005b34801561012057600080fd5b506101296107c8565b604051610136919061175f565b60405180910390f35b34801561014b57600080fd5b506101546107ce565b005b34801561016257600080fd5b5061016b6107e2565b604051610178919061177a565b60405180910390f35b61019b6004803603810190610196919061161c565b61080b565b005b3480156101a957600080fd5b506101c460048036038101906101bf919061166f565b610cb5565b005b3480156101d257600080fd5b506101db61103b565b6040516101e891906117f4565b60405180910390f35b3480156101fd57600080fd5b506102186004803603810190610213919061183b565b611061565b005b34801561022657600080fd5b50610241600480360381019061023c9190611868565b6110e7565b005b600160009054906101000a900473ffffffffffffffffffffffffffffffffffffffff1673ffffffffffffffffffffffffffffffffffffffff16634a164732846040518263ffffffff1660e01b815260040161029e919061175f565b602060405180830381865afa1580156102bb573d6000803e3d6000fd5b505050506040513d601f19601f820116820180604052508101906102df91906118c1565b61031e576040517f08c379a00000000000000000000000000000000000000000000000000000000081526004016103159061194b565b60405180910390fd5b600354341015610363576040517f08c379a000000000000000000000000000000000000000000000000000000000815260040161035a906119b7565b60405180910390fd5b6000600160009054906101000a900473ffffffffffffffffffffffffffffffffffffffff1673ffffffffffffffffffffffffffffffffffffffff1663126dbe43856040518263ffffffff1660e01b81526004016103c0919061175f565b600060405180830381865afa1580156103dd573d6000803e3d6000fd5b505050506040513d6000823e3d601f19601f820116820180604052508101906104069190611b62565b9450505050506000819050838173ffffffffffffffffffffffffffffffffffffffff166370a08231336040518263ffffffff1660e01b815260040161044b919061177a565b602060405180830381865afa158015610468573d6000803e3d6000fd5b505050506040513d601f19601f8201168201806040525081019061048c9190611bf9565b10156104cd576040517f08c379a00000000000000000000000000000000000000000000000000000000081526004016104c490611c72565b60405180910390fd5b6000600260008781526020019081526020016000208054905090506002600087815260200190815260200160002060405180608001604052803373ffffffffffffffffffffffffffffffffffffffff16815260200187815260200186815260200160011515815250908060018154018082558091505060019003906000526020600020906004020160009091909190915060008201518160000160006101000a81548173ffffffffffffffffffffffffffffffffffffffff021916908373ffffffffffffffffffffffffffffffffffffffff160217905550602082015181600101556040820151816002015560608201518160030160006101000a81548160ff02191690831515021790555050506106083330878573ffffffffffffffffffffffffffffffffffffffff16611130909392919063ffffffff16565b857f8fb738642df32fc456e644113d99527c2bdc0a5d836114cd4c8f0fd259fe02333387878560405161063e9493929190611c92565b60405180910390a26003543411156106a5573373ffffffffffffffffffffffffffffffffffffffff166108fc600354346106789190611d06565b9081150290604051600060405180830381858888f193505050501580156106a3573d6000803e3d6000fd5b505b505050505050565b600260205281600052604060002081815481106106c957600080fd5b9060005260206000209060040201600091509150508060000160009054906101000a900473ffffffffffffffffffffffffffffffffffffffff16908060010154908060020154908060030160009054906101000a900460ff16905084565b61072f6111b2565b600047905060008111610777576040517f08c379a000000000000000000000000000000000000000000000000000000000815260040161076e90611d86565b60405180910390fd5b61077f6107e2565b73ffffffffffffffffffffffffffffffffffffffff166108fc829081150290604051600060405180830381858888f193505050501580156107c4573d6000803e3d6000fd5b5050565b60035481565b6107d66111b2565b6107e06000611239565b565b60008060009054906101000a900473ffffffffffffffffffffffffffffffffffffffff16905090565b600160009054906101000a900473ffffffffffffffffffffffffffffffffffffffff1673ffffffffffffffffffffffffffffffffffffffff16634a164732846040518263ffffffff1660e01b8152600401610866919061175f565b602060405180830381865afa158015610883573d6000803e3d6000fd5b505050506040513d601f19601f820116820180604052508101906108a791906118c1565b6108e6576040517f08c379a00000000000000000000000000000000000000000000000000000000081526004016108dd9061194b565b60405180910390fd5b6002600084815260200190815260200160002080549050821061093e576040517f08c379a000000000000000000000000000000000000000000000000000000000815260040161093590611df2565b60405180910390fd5b600060026000858152602001908152602001600020838154811061096557610964611e12565b5b906000526020600020906004020190508060030160009054906101000a900460ff166109c6576040517f08c379a00000000000000000000000000000000000000000000000000000000081526004016109bd90611e8d565b60405180910390fd5b8060010154821115610a0d576040517f08c379a0000000000000000000000000000000000000000000000000000000008152600401610a0490611c72565b60405180910390fd5b6000816002015483610a1f9190611ead565b905080341015610a64576040517f08c379a0000000000000000000000000000000000000000000000000000000008152600401610a5b90611f3b565b60405180910390fd5b6000600160009054906101000a900473ffffffffffffffffffffffffffffffffffffffff1673ffffffffffffffffffffffffffffffffffffffff1663126dbe43876040518263ffffffff1660e01b8152600401610ac1919061175f565b600060405180830381865afa158015610ade573d6000803e3d6000fd5b505050506040513d6000823e3d601f19601f82011682018060405250810190610b079190611b62565b9450505050506000819050610b3d33868373ffffffffffffffffffffffffffffffffffffffff166112fd9092919063ffffffff16565b8360000160009054906101000a900473ffffffffffffffffffffffffffffffffffffffff1673ffffffffffffffffffffffffffffffffffffffff166108fc849081150290604051600060405180830381858888f19350505050158015610ba7573d6000803e3d6000fd5b5084846001016000828254610bbc9190611d06565b925050819055506000846001015403610bed5760008460030160006101000a81548160ff0219169083151502179055505b867fcb415e50fcb3e97dad2907af3dfeb844e454682545e54b15b8626125b3ebb07c338660000160009054906101000a900473ffffffffffffffffffffffffffffffffffffffff1688878b604051610c49959493929190611f5b565b60405180910390a282341115610cac573373ffffffffffffffffffffffffffffffffffffffff166108fc8434610c7f9190611d06565b9081150290604051600060405180830381858888f19350505050158015610caa573d6000803e3d6000fd5b505b50505050505050565b600160009054906101000a900473ffffffffffffffffffffffffffffffffffffffff1673ffffffffffffffffffffffffffffffffffffffff16634a164732836040518263ffffffff1660e01b8152600401610d10919061175f565b602060405180830381865afa158015610d2d573d6000803e3d6000fd5b505050506040513d601f19601f82011682018060405250810190610d5191906118c1565b610d90576040517f08c379a0000000000000000000000000000000000000000000000000000000008152600401610d879061194b565b60405180910390fd5b60026000838152602001908152602001600020805490508110610de8576040517f08c379a0000000000000000000000000000000000000000000000000000000008152600401610ddf90611df2565b60405180910390fd5b6000600260008481526020019081526020016000208281548110610e0f57610e0e611e12565b5b906000526020600020906004020190503373ffffffffffffffffffffffffffffffffffffffff168160000160009054906101000a900473ffffffffffffffffffffffffffffffffffffffff1673ffffffffffffffffffffffffffffffffffffffff1614610eb1576040517f08c379a0000000000000000000000000000000000000000000000000000000008152600401610ea890611ffa565b60405180910390fd5b8060030160009054906101000a900460ff16610f02576040517f08c379a0000000000000000000000000000000000000000000000000000000008152600401610ef990611e8d565b60405180910390fd5b60008160030160006101000a81548160ff0219169083151502179055506000600160009054906101000a900473ffffffffffffffffffffffffffffffffffffffff1673ffffffffffffffffffffffffffffffffffffffff1663126dbe43856040518263ffffffff1660e01b8152600401610f7c919061175f565b600060405180830381865afa158015610f99573d6000803e3d6000fd5b505050506040513d6000823e3d601f19601f82011682018060405250810190610fc29190611b62565b9450505050506000819050610ffc3384600101548373ffffffffffffffffffffffffffffffffffffffff166112fd9092919063ffffffff16565b847fafd0a85a3f09cebbc7d9fcde08e8a7d0ebb0aa7d768a030915c3816a053d3c7a8560405161102c919061175f565b60405180910390a25050505050565b600160009054906101000a900473ffffffffffffffffffffffffffffffffffffffff1681565b6110696111b2565b600073ffffffffffffffffffffffffffffffffffffffff168173ffffffffffffffffffffffffffffffffffffffff16036110db5760006040517f1e4fbdf70000000000000000000000000000000000000000000000000000000081526004016110d2919061177a565b60405180910390fd5b6110e481611239565b50565b6110ef6111b2565b806003819055507f5fb4654f1efe30c6141eaa6855ffcb27e0b361d899b05e21b1a4d0b3e71e14db81604051611125919061175f565b60405180910390a150565b6111ac848573ffffffffffffffffffffffffffffffffffffffff166323b872dd8686866040516024016111659392919061201a565b604051602081830303815290604052915060e01b6020820180517bffffffffffffffffffffffffffffffffffffffffffffffffffffffff838183161783525050505061137c565b50505050565b6111ba611413565b73ffffffffffffffffffffffffffffffffffffffff166111d86107e2565b73ffffffffffffffffffffffffffffffffffffffff1614611237576111fb611413565b6040517f118cdaa700000000000000000000000000000000000000000000000000000000815260040161122e919061177a565b60405180910390fd5b565b60008060009054906101000a900473ffffffffffffffffffffffffffffffffffffffff169050816000806101000a81548173ffffffffffffffffffffffffffffffffffffffff021916908373ffffffffffffffffffffffffffffffffffffffff1602179055508173ffffffffffffffffffffffffffffffffffffffff168173ffffffffffffffffffffffffffffffffffffffff167f8be0079c531659141344cd1fd0a4f28419497f9722a3daafe3b4186f6b6457e060405160405180910390a35050565b611377838473ffffffffffffffffffffffffffffffffffffffff1663a9059cbb8585604051602401611330929190612051565b604051602081830303815290604052915060e01b6020820180517bffffffffffffffffffffffffffffffffffffffffffffffffffffffff838183161783525050505061137c565b505050565b60006113a7828473ffffffffffffffffffffffffffffffffffffffff1661141b90919063ffffffff16565b905060008151141580156113cc5750808060200190518101906113ca91906118c1565b155b1561140e57826040517f5274afe7000000000000000000000000000000000000000000000000000000008152600401611405919061177a565b60405180910390fd5b505050565b600033905090565b606061142983836000611431565b905092915050565b60608147101561147857306040517fcd78605900000000000000000000000000000000000000000000000000000000815260040161146f919061177a565b60405180910390fd5b6000808573ffffffffffffffffffffffffffffffffffffffff1684866040516114a191906120c1565b60006040518083038185875af1925050503d80600081146114de576040519150601f19603f3d011682016040523d82523d6000602084013e6114e3565b606091505b50915091506114f38683836114fe565b925050509392505050565b6060826115135761150e8261158d565b611585565b6000825114801561153b575060008473ffffffffffffffffffffffffffffffffffffffff163b145b1561157d57836040517f9996b315000000000000000000000000000000000000000000000000000000008152600401611574919061177a565b60405180910390fd5b819050611586565b5b9392505050565b6000815111156115a05780518082602001fd5b6040517f1425ea4200000000000000000000000000000000000000000000000000000000815260040160405180910390fd5b6000604051905090565b600080fd5b600080fd5b6000819050919050565b6115f9816115e6565b811461160457600080fd5b50565b600081359050611616816115f0565b92915050565b600080600060608486031215611635576116346115dc565b5b600061164386828701611607565b935050602061165486828701611607565b925050604061166586828701611607565b9150509250925092565b60008060408385031215611686576116856115dc565b5b600061169485828601611607565b92505060206116a585828601611607565b9150509250929050565b600073ffffffffffffffffffffffffffffffffffffffff82169050919050565b60006116da826116af565b9050919050565b6116ea816116cf565b82525050565b6116f9816115e6565b82525050565b60008115159050919050565b611714816116ff565b82525050565b600060808201905061172f60008301876116e1565b61173c60208301866116f0565b61174960408301856116f0565b611756606083018461170b565b95945050505050565b600060208201905061177460008301846116f0565b92915050565b600060208201905061178f60008301846116e1565b92915050565b6000819050919050565b60006117ba6117b56117b0846116af565b611795565b6116af565b9050919050565b60006117cc8261179f565b9050919050565b60006117de826117c1565b9050919050565b6117ee816117d3565b82525050565b600060208201905061180960008301846117e5565b92915050565b611818816116cf565b811461182357600080fd5b50565b6000813590506118358161180f565b92915050565b600060208284031215611851576118506115dc565b5b600061185f84828501611826565b91505092915050565b60006020828403121561187e5761187d6115dc565b5b600061188c84828501611607565b91505092915050565b61189e816116ff565b81146118a957600080fd5b50565b6000815190506118bb81611895565b92915050565b6000602082840312156118d7576118d66115dc565b5b60006118e5848285016118ac565b91505092915050565b600082825260208201905092915050565b7f4e6f742065786973740000000000000000000000000000000000000000000000600082015250565b60006119356009836118ee565b9150611940826118ff565b602082019050919050565b6000602082019050818103600083015261196481611928565b9050919050565b7f466565206c6f7700000000000000000000000000000000000000000000000000600082015250565b60006119a16007836118ee565b91506119ac8261196b565b602082019050919050565b600060208201905081810360008301526119d081611994565b9050919050565b600080fd5b600080fd5b6000601f19601f8301169050919050565b7f4e487b7100000000000000000000000000000000000000000000000000000000600052604160045260246000fd5b611a2a826119e1565b810181811067ffffffffffffffff82111715611a4957611a486119f2565b5b80604052505050565b6000611a5c6115d2565b9050611a688282611a21565b919050565b600067ffffffffffffffff821115611a8857611a876119f2565b5b611a91826119e1565b9050602081019050919050565b60005b83811015611abc578082015181840152602081019050611aa1565b60008484015250505050565b6000611adb611ad684611a6d565b611a52565b905082815260208101848484011115611af757611af66119dc565b5b611b02848285611a9e565b509392505050565b600082601f830112611b1f57611b1e6119d7565b5b8151611b2f848260208601611ac8565b91505092915050565b600081519050611b478161180f565b92915050565b600081519050611b5c816115f0565b92915050565b600080600080600060a08688031215611b7e57611b7d6115dc565b5b600086015167ffffffffffffffff811115611b9c57611b9b6115e1565b5b611ba888828901611b0a565b9550506020611bb988828901611b38565b9450506040611bca888289016118ac565b9350506060611bdb88828901611b4d565b9250506080611bec88828901611b38565b9150509295509295909350565b600060208284031215611c0f57611c0e6115dc565b5b6000611c1d84828501611b4d565b91505092915050565b7f4e6f7420656e6f75676800000000000000000000000000000000000000000000600082015250565b6000611c5c600a836118ee565b9150611c6782611c26565b602082019050919050565b60006020820190508181036000830152611c8b81611c4f565b9050919050565b6000608082019050611ca760008301876116e1565b611cb460208301866116f0565b611cc160408301856116f0565b611cce60608301846116f0565b95945050505050565b7f4e487b7100000000000000000000000000000000000000000000000000000000600052601160045260246000fd5b6000611d11826115e6565b9150611d1c836115e6565b9250828203905081811115611d3457611d33611cd7565b5b92915050565b7f4e6f206665657300000000000000000000000000000000000000000000000000600082015250565b6000611d706007836118ee565b9150611d7b82611d3a565b602082019050919050565b60006020820190508181036000830152611d9f81611d63565b9050919050565b7f496e76616c696420494400000000000000000000000000000000000000000000600082015250565b6000611ddc600a836118ee565b9150611de782611da6565b602082019050919050565b60006020820190508181036000830152611e0b81611dcf565b9050919050565b7f4e487b7100000000000000000000000000000000000000000000000000000000600052603260045260246000fd5b7f4e6f742061637469766500000000000000000000000000000000000000000000600082015250565b6000611e77600a836118ee565b9150611e8282611e41565b602082019050919050565b60006020820190508181036000830152611ea681611e6a565b9050919050565b6000611eb8826115e6565b9150611ec3836115e6565b9250828202611ed1816115e6565b91508282048414831517611ee857611ee7611cd7565b5b5092915050565b7f4c6f77207061796d656e74000000000000000000000000000000000000000000600082015250565b6000611f25600b836118ee565b9150611f3082611eef565b602082019050919050565b60006020820190508181036000830152611f5481611f18565b9050919050565b600060a082019050611f7060008301886116e1565b611f7d60208301876116e1565b611f8a60408301866116f0565b611f9760608301856116f0565b611fa460808301846116f0565b9695505050505050565b7f4e6f742073656c6c657200000000000000000000000000000000000000000000600082015250565b6000611fe4600a836118ee565b9150611fef82611fae565b602082019050919050565b6000602082019050818103600083015261201381611fd7565b9050919050565b600060608201905061202f60008301866116e1565b61203c60208301856116e1565b61204960408301846116f0565b949350505050565b600060408201905061206660008301856116e1565b61207360208301846116f0565b9392505050565b600081519050919050565b600081905092915050565b600061209b8261207a565b6120a58185612085565b93506120b5818560208601611a9e565b80840191505092915050565b60006120cd8284612090565b91508190509291505056fea264697066735822122084e05f2ebd6b83ef60a2932ad2c239a4efaf4046267ecfc453c8927098763ff064736f6c63430008180033",
  "linkReferences": {},
  "deployedLinkReferences": {}
}