{
  "_format": "hh-sol-artifact-1",
  "contractName": "FractionalNFTCore",
  "sourceName": "contracts/FractionalNFTCore.sol",
  "abi": [
    {
      "inputs": [
        {
          "internalType": "address",
          "name": "initialOwner",
          "type": "address"
        }
      ],
      "stateMutability": "nonpayable",
      "type": "constructor"
    },
    {
      "inputs": [
        {
          "internalType": "address",
          "name": "sender",
          "type": "address"
        },
        {
          "internalType": "uint256",
          "name": "tokenId",
          "type": "uint256"
        },
        {
          "internalType": "address",
          "name": "owner",
          "type": "address"
        }
      ],
      "name": "ERC721IncorrectOwner",
      "type": "error"
    },
    {
      "inputs": [
        {
          "internalType": "address",
          "name": "operator",
          "type": "address"
        },
        {
          "internalType": "uint256",
          "name": "tokenId",
          "type": "uint256"
        }
      ],
      "name": "ERC721InsufficientApproval",
      "type": "error"
    },
    {
      "inputs": [
        {
          "internalType": "address",
          "name": "approver",
          "type": "address"
        }
      ],
      "name": "ERC721InvalidApprover",
      "type": "error"
    },
    {
      "inputs": [
        {
          "internalType": "address",
          "name": "operator",
          "type": "address"
        }
      ],
      "name": "ERC721InvalidOperator",
      "type": "error"
    },
    {
      "inputs": [
        {
          "internalType": "address",
          "name": "owner",
          "type": "address"
        }
      ],
      "name": "ERC721InvalidOwner",
      "type": "error"
    },
    {
      "inputs": [
        {
          "internalType": "address",
          "name": "receiver",
          "type": "address"
        }
      ],
      "name": "ERC721InvalidReceiver",
      "type": "error"
    },
    {
      "inputs": [
        {
          "internalType": "address",
          "name": "sender",
          "type": "address"
        }
      ],
      "name": "ERC721InvalidSender",
      "type": "error"
    },
    {
      "inputs": [
        {
          "internalType": "uint256",
          "name": "tokenId",
          "type": "uint256"
        }
      ],
      "name": "ERC721NonexistentToken",
      "type": "error"
    },
    {
      "inputs": [
        {
          "internalType": "address",
          "name": "owner",
          "type": "address"
        }
      ],
      "name": "OwnableInvalidOwner",
      "type": "error"
    },
    {
      "inputs": [
        {
          "internalType": "address",
          "name": "account",
          "type": "address"
        }
      ],
      "name": "OwnableUnauthorizedAccount",
      "type": "error"
    },
    {
      "anonymous": false,
      "inputs": [
        {
          "indexed": true,
          "internalType": "address",
          "name": "owner",
          "type": "address"
        },
        {
          "indexed": true,
          "internalType": "address",
          "name": "approved",
          "type": "address"
        },
        {
          "indexed": true,
          "internalType": "uint256",
          "name": "tokenId",
          "type": "uint256"
        }
      ],
      "name": "Approval",
      "type": "event"
    },
    {
      "anonymous": false,
      "inputs": [
        {
          "indexed": true,
          "internalType": "address",
          "name": "owner",
          "type": "address"
        },
        {
          "indexed": true,
          "internalType": "address",
          "name": "operator",
          "type": "address"
        },
        {
          "indexed": false,
          "internalType": "bool",
          "name": "approved",
          "type": "bool"
        }
      ],
      "name": "ApprovalForAll",
      "type": "event"
    },
    {
      "anonymous": false,
      "inputs": [
        {
          "indexed": true,
          "internalType": "address",
          "name": "previousOwner",
          "type": "address"
        },
        {
          "indexed": true,
          "internalType": "address",
          "name": "newOwner",
          "type": "address"
        }
      ],
      "name": "OwnershipTransferred",
      "type": "event"
    },
    {
      "anonymous": false,
      "inputs": [
        {
          "indexed": true,
          "internalType": "uint256",
          "name": "propertyId",
          "type": "uint256"
        },
        {
          "indexed": false,
          "internalType": "uint256",
          "name": "newPrice",
          "type": "uint256"
        }
      ],
      "name": "PriceUpdated",
      "type": "event"
    },
    {
      "anonymous": false,
      "inputs": [
        {
          "indexed": true,
          "internalType": "uint256",
          "name": "propertyId",
          "type": "uint256"
        }
      ],
      "name": "PropertyApproved",
      "type": "event"
    },
    {
      "anonymous": false,
      "inputs": [
        {
          "indexed": true,
          "internalType": "uint256",
          "name": "propertyId",
          "type": "uint256"
        },
        {
          "indexed": false,
          "internalType": "string",
          "name": "name",
          "type": "string"
        },
        {
          "indexed": false,
          "internalType": "address",
          "name": "owner",
          "type": "address"
        },
        {
          "indexed": false,
          "internalType": "uint256",
          "name": "price",
          "type": "uint256"
        },
        {
          "indexed": false,
          "internalType": "address",
          "name": "fractionToken",
          "type": "address"
        }
      ],
      "name": "PropertyCreated",
      "type": "event"
    },
    {
      "anonymous": false,
      "inputs": [
        {
          "indexed": true,
          "internalType": "address",
          "name": "from",
          "type": "address"
        },
        {
          "indexed": true,
          "internalType": "address",
          "name": "to",
          "type": "address"
        },
        {
          "indexed": true,
          "internalType": "uint256",
          "name": "tokenId",
          "type": "uint256"
        }
      ],
      "name": "Transfer",
      "type": "event"
    },
    {
      "inputs": [],
      "name": "TOTAL_SHARES",
      "outputs": [
        {
          "internalType": "uint256",
          "name": "",
          "type": "uint256"
        }
      ],
      "stateMutability": "view",
      "type": "function"
    },
    {
      "inputs": [
        {
          "internalType": "address",
          "name": "to",
          "type": "address"
        },
        {
          "internalType": "uint256",
          "name": "tokenId",
          "type": "uint256"
        }
      ],
      "name": "approve",
      "outputs": [],
      "stateMutability": "nonpayable",
      "type": "function"
    },
    {
      "inputs": [
        {
          "internalType": "uint256",
          "name": "_propertyId",
          "type": "uint256"
        }
      ],
      "name": "approveProperty",
      "outputs": [],
      "stateMutability": "nonpayable",
      "type": "function"
    },
    {
      "inputs": [
        {
          "internalType": "address",
          "name": "owner",
          "type": "address"
        }
      ],
      "name": "balanceOf",
      "outputs": [
        {
          "internalType": "uint256",
          "name": "",
          "type": "uint256"
        }
      ],
      "stateMutability": "view",
      "type": "function"
    },
    {
      "inputs": [
        {
          "internalType": "string",
          "name": "_name",
          "type": "string"
        },
        {
          "internalType": "uint256",
          "name": "_price",
          "type": "uint256"
        }
      ],
      "name": "createProperty",
      "outputs": [],
      "stateMutability": "nonpayable",
      "type": "function"
    },
    {
      "inputs": [],
      "name": "getAllProperties",
      "outputs": [
        {
          "internalType": "uint256[]",
          "name": "ids",
          "type": "uint256[]"
        },
        {
          "internalType": "string[]",
          "name": "names",
          "type": "string[]"
        },
        {
          "internalType": "address[]",
          "name": "owners",
          "type": "address[]"
        },
        {
          "internalType": "bool[]",
          "name": "approvalStatus",
          "type": "bool[]"
        },
        {
          "internalType": "uint256[]",
          "name": "prices",
          "type": "uint256[]"
        },
        {
          "internalType": "address[]",
          "name": "fractionTokens",
          "type": "address[]"
        }
      ],
      "stateMutability": "view",
      "type": "function"
    },
    {
      "inputs": [
        {
          "internalType": "uint256",
          "name": "tokenId",
          "type": "uint256"
        }
      ],
      "name": "getApproved",
      "outputs": [
        {
          "internalType": "address",
          "name": "",
          "type": "address"
        }
      ],
      "stateMutability": "view",
      "type": "function"
    },
    {
      "inputs": [],
      "name": "getApprovedProperties",
      "outputs": [
        {
          "internalType": "uint256[]",
          "name": "ids",
          "type": "uint256[]"
        },
        {
          "internalType": "string[]",
          "name": "names",
          "type": "string[]"
        },
        {
          "internalType": "address[]",
          "name": "owners",
          "type": "address[]"
        },
        {
          "internalType": "uint256[]",
          "name": "prices",
          "type": "uint256[]"
        },
        {
          "internalType": "address[]",
          "name": "fractionTokens",
          "type": "address[]"
        }
      ],
      "stateMutability": "view",
      "type": "function"
    },
    {
      "inputs": [
        {
          "internalType": "uint256",
          "name": "_propertyId",
          "type": "uint256"
        }
      ],
      "name": "getPropertyDetails",
      "outputs": [
        {
          "internalType": "string",
          "name": "name",
          "type": "string"
        },
        {
          "internalType": "address",
          "name": "owner",
          "type": "address"
        },
        {
          "internalType": "bool",
          "name": "isApproved",
          "type": "bool"
        },
        {
          "internalType": "uint256",
          "name": "price",
          "type": "uint256"
        },
        {
          "internalType": "address",
          "name": "fractionToken",
          "type": "address"
        }
      ],
      "stateMutability": "view",
      "type": "function"
    },
    {
      "inputs": [
        {
          "internalType": "address",
          "name": "owner",
          "type": "address"
        },
        {
          "internalType": "address",
          "name": "operator",
          "type": "address"
        }
      ],
      "name": "isApprovedForAll",
      "outputs": [
        {
          "internalType": "bool",
          "name": "",
          "type": "bool"
        }
      ],
      "stateMutability": "view",
      "type": "function"
    },
    {
      "inputs": [],
      "name": "name",
      "outputs": [
        {
          "internalType": "string",
          "name": "",
          "type": "string"
        }
      ],
      "stateMutability": "view",
      "type": "function"
    },
    {
      "inputs": [],
      "name": "nextPropertyId",
      "outputs": [
        {
          "internalType": "uint256",
          "name": "",
          "type": "uint256"
        }
      ],
      "stateMutability": "view",
      "type": "function"
    },
    {
      "inputs": [],
      "name": "owner",
      "outputs": [
        {
          "internalType": "address",
          "name": "",
          "type": "address"
        }
      ],
      "stateMutability": "view",
      "type": "function"
    },
    {
      "inputs": [
        {
          "internalType": "uint256",
          "name": "tokenId",
          "type": "uint256"
        }
      ],
      "name": "ownerOf",
      "outputs": [
        {
          "internalType": "address",
          "name": "",
          "type": "address"
        }
      ],
      "stateMutability": "view",
      "type": "function"
    },
    {
      "inputs": [
        {
          "internalType": "uint256",
          "name": "",
          "type": "uint256"
        }
      ],
      "name": "properties",
      "outputs": [
        {
          "internalType": "string",
          "name": "name",
          "type": "string"
        },
        {
          "internalType": "address",
          "name": "owner",
          "type": "address"
        },
        {
          "internalType": "bool",
          "name": "isApproved",
          "type": "bool"
        },
        {
          "internalType": "uint256",
          "name": "price",
          "type": "uint256"
        },
        {
          "internalType": "address",
          "name": "fractionToken",
          "type": "address"
        },
        {
          "internalType": "bool",
          "name": "exists",
          "type": "bool"
        }
      ],
      "stateMutability": "view",
      "type": "function"
    },
    {
      "inputs": [
        {
          "internalType": "uint256",
          "name": "_propertyId",
          "type": "uint256"
        }
      ],
      "name": "propertyExists",
      "outputs": [
        {
          "internalType": "bool",
          "name": "",
          "type": "bool"
        }
      ],
      "stateMutability": "view",
      "type": "function"
    },
    {
      "inputs": [
        {
          "internalType": "uint256",
          "name": "",
          "type": "uint256"
        }
      ],
      "name": "propertyIds",
      "outputs": [
        {
          "internalType": "uint256",
          "name": "",
          "type": "uint256"
        }
      ],
      "stateMutability": "view",
      "type": "function"
    },
    {
      "inputs": [],
      "name": "renounceOwnership",
      "outputs": [],
      "stateMutability": "nonpayable",
      "type": "function"
    },
    {
      "inputs": [
        {
          "internalType": "address",
          "name": "from",
          "type": "address"
        },
        {
          "internalType": "address",
          "name": "to",
          "type": "address"
        },
        {
          "internalType": "uint256",
          "name": "tokenId",
          "type": "uint256"
        }
      ],
      "name": "safeTransferFrom",
      "outputs": [],
      "stateMutability": "nonpayable",
      "type": "function"
    },
    {
      "inputs": [
        {
          "internalType": "address",
          "name": "from",
          "type": "address"
        },
        {
          "internalType": "address",
          "name": "to",
          "type": "address"
        },
        {
          "internalType": "uint256",
          "name": "tokenId",
          "type": "uint256"
        },
        {
          "internalType": "bytes",
          "name": "data",
          "type": "bytes"
        }
      ],
      "name": "safeTransferFrom",
      "outputs": [],
      "stateMutability": "nonpayable",
      "type": "function"
    },
    {
      "inputs": [
        {
          "internalType": "address",
          "name": "operator",
          "type": "address"
        },
        {
          "internalType": "bool",
          "name": "approved",
          "type": "bool"
        }
      ],
      "name": "setApprovalForAll",
      "outputs": [],
      "stateMutability": "nonpayable",
      "type": "function"
    },
    {
      "inputs": [
        {
          "internalType": "bytes4",
          "name": "interfaceId",
          "type": "bytes4"
        }
      ],
      "name": "supportsInterface",
      "outputs": [
        {
          "internalType": "bool",
          "name": "",
          "type": "bool"
        }
      ],
      "stateMutability": "view",
      "type": "function"
    },
    {
      "inputs": [],
      "name": "symbol",
      "outputs": [
        {
          "internalType": "string",
          "name": "",
          "type": "string"
        }
      ],
      "stateMutability": "view",
      "type": "function"
    },
    {
      "inputs": [
        {
          "internalType": "uint256",
          "name": "tokenId",
          "type": "uint256"
        }
      ],
      "name": "tokenURI",
      "outputs": [
        {
          "internalType": "string",
          "name": "",
          "type": "string"
        }
      ],
      "stateMutability": "view",
      "type": "function"
    },
    {
      "inputs": [
        {
          "internalType": "address",
          "name": "from",
          "type": "address"
        },
        {
          "internalType": "address",
          "name": "to",
          "type": "address"
        },
        {
          "internalType": "uint256",
          "name": "tokenId",
          "type": "uint256"
        }
      ],
      "name": "transferFrom",
      "outputs": [],
      "stateMutability": "nonpayable",
      "type": "function"
    },
    {
      "inputs": [
        {
          "internalType": "address",
          "name": "newOwner",
          "type": "address"
        }
      ],
      "name": "transferOwnership",
      "outputs": [],
      "stateMutability": "nonpayable",
      "type": "function"
    },
    {
      "inputs": [
        {
          "internalType": "uint256",
          "name": "_propertyId",
          "type": "uint256"
        },
        {
          "internalType": "uint256",
          "name": "_newPrice",
          "type": "uint256"
        }
      ],
      "name": "updatePrice",
      "outputs": [],
      "stateMutability": "nonpayable",
      "type": "function"
    }
  ],
  "bytecode": "0x608060405260016009553480156200001657600080fd5b50604051620069b5380380620069b583398181016040528101906200003c91906200028d565b806040518060400160405280600d81526020017f4672616374696f6e616c4e4654000000000000000000000000000000000000008152506040518060400160405280600481526020017f464e4654000000000000000000000000000000000000000000000000000000008152508160009081620000ba919062000539565b508060019081620000cc919062000539565b505050600073ffffffffffffffffffffffffffffffffffffffff168173ffffffffffffffffffffffffffffffffffffffff1603620001445760006040517f1e4fbdf70000000000000000000000000000000000000000000000000000000081526004016200013b919062000631565b60405180910390fd5b62000155816200015d60201b60201c565b50506200064e565b6000600660009054906101000a900473ffffffffffffffffffffffffffffffffffffffff16905081600660006101000a81548173ffffffffffffffffffffffffffffffffffffffff021916908373ffffffffffffffffffffffffffffffffffffffff1602179055508173ffffffffffffffffffffffffffffffffffffffff168173ffffffffffffffffffffffffffffffffffffffff167f8be0079c531659141344cd1fd0a4f28419497f9722a3daafe3b4186f6b6457e060405160405180910390a35050565b600080fd5b600073ffffffffffffffffffffffffffffffffffffffff82169050919050565b6000620002558262000228565b9050919050565b620002678162000248565b81146200027357600080fd5b50565b60008151905062000287816200025c565b92915050565b600060208284031215620002a657620002a562000223565b5b6000620002b68482850162000276565b91505092915050565b600081519050919050565b7f4e487b7100000000000000000000000000000000000000000000000000000000600052604160045260246000fd5b7f4e487b7100000000000000000000000000000000000000000000000000000000600052602260045260246000fd5b600060028204905060018216806200034157607f821691505b602082108103620003575762000356620002f9565b5b50919050565b60008190508160005260206000209050919050565b60006020601f8301049050919050565b600082821b905092915050565b600060088302620003c17fffffffffffffffffffffffffffffffffffffffffffffffffffffffffffffffff8262000382565b620003cd868362000382565b95508019841693508086168417925050509392505050565b6000819050919050565b6000819050919050565b60006200041a620004146200040e84620003e5565b620003ef565b620003e5565b9050919050565b6000819050919050565b6200043683620003f9565b6200044e620004458262000421565b8484546200038f565b825550505050565b600090565b6200046562000456565b620004728184846200042b565b505050565b5b818110156200049a576200048e6000826200045b565b60018101905062000478565b5050565b601f821115620004e957620004b3816200035d565b620004be8462000372565b81016020851015620004ce578190505b620004e6620004dd8562000372565b83018262000477565b50505b505050565b600082821c905092915050565b60006200050e60001984600802620004ee565b1980831691505092915050565b6000620005298383620004fb565b9150826002028217905092915050565b6200054482620002bf565b67ffffffffffffffff81111562000560576200055f620002ca565b5b6200056c825462000328565b620005798282856200049e565b600060209050601f831160018114620005b157600084156200059c578287015190505b620005a885826200051b565b86555062000618565b601f198416620005c1866200035d565b60005b82811015620005eb57848901518255600182019150602085019450602081019050620005c4565b868310156200060b578489015162000607601f891682620004fb565b8355505b6001600288020188555050505b505050505050565b6200062b8162000248565b82525050565b600060208201905062000648600083018462000620565b92915050565b616357806200065e6000396000f3fe60806040523480156200001157600080fd5b5060043610620001d25760003560e01c806370a082311162000111578063b88d4fde11620000a5578063e985e9c5116200007b578063e985e9c5146200056e578063e9b66f8c14620005a4578063f2fde38b14620005c4578063f7b1080814620005e457620001d2565b8063b88d4fde14620004e2578063c87b56dd1462000502578063d03b47f4146200053857620001d2565b806385e3f99711620000e757806385e3f997146200045c5780638da5cb5b146200047e57806395d89b4114620004a0578063a22cb46514620004c257620001d2565b806370a0823114620003fa578063715018a6146200043057806382367b2d146200043c57620001d2565b80632536ce6c116200018957806342842e0e116200015f57806342842e0e146200034e5780634a164732146200036e5780635a6368ef14620003a45780636352211e14620003c457620001d2565b80632536ce6c14620002df57806339500f3414620003055780633d51402c146200032757620001d2565b806301ffc9a714620001d757806306fdde03146200020d578063081812fc146200022f578063095ea7b31462000265578063126dbe43146200028557806323b872dd14620002bf575b600080fd5b620001f56004803603810190620001ef919062002d5a565b6200061f565b60405162000204919062002da9565b60405180910390f35b6200021762000705565b60405162000226919062002e60565b60405180910390f35b6200024d600480360381019062000247919062002ebf565b6200079f565b6040516200025c919062002f36565b60405180910390f35b6200028360048036038101906200027d919062002f84565b620007bf565b005b620002a360048036038101906200029d919062002ebf565b620007d9565b604051620002b695949392919062002fdc565b60405180910390f35b620002dd6004803603810190620002d7919062003040565b62000952565b005b620002e962000a5e565b604051620002fc9594939291906200335a565b60405180910390f35b6200030f62000ef0565b6040516200031e9190620033da565b60405180910390f35b6200033162000ef6565b6040516200034596959493929190620034c5565b60405180910390f35b6200036c600480360381019062000366919062003040565b62001370565b005b6200038c600480360381019062000386919062002ebf565b62001392565b6040516200039b919062002da9565b60405180910390f35b620003c26004803603810190620003bc9190620036ad565b620013bf565b005b620003e26004803603810190620003dc919062002ebf565b620016d3565b604051620003f1919062002f36565b60405180910390f35b62000418600480360381019062000412919062003713565b620016e7565b604051620004279190620033da565b60405180910390f35b6200043a620017a4565b005b6200045a600480360381019062000454919062003745565b620017bc565b005b62000466620018fd565b604051620004759190620033da565b60405180910390f35b6200048862001903565b60405162000497919062002f36565b60405180910390f35b620004aa6200192d565b604051620004b9919062002e60565b60405180910390f35b620004e06004803603810190620004da9190620037bd565b620019c7565b005b620005006004803603810190620004fa9190620038b8565b620019e1565b005b6200052060048036038101906200051a919062002ebf565b62001a02565b6040516200052f919062002e60565b60405180910390f35b62000556600480360381019062000550919062002ebf565b62001a75565b604051620005659190620033da565b60405180910390f35b6200058c600480360381019062000586919062003949565b62001a9a565b6040516200059b919062002da9565b60405180910390f35b620005c26004803603810190620005bc919062002ebf565b62001b2e565b005b620005e26004803603810190620005dc919062003713565b62001be4565b005b620006026004803603810190620005fc919062002ebf565b62001c71565b604051620006169695949392919062003990565b60405180910390f35b60007f80ac58cd000000000000000000000000000000000000000000000000000000007bffffffffffffffffffffffffffffffffffffffffffffffffffffffff1916827bffffffffffffffffffffffffffffffffffffffffffffffffffffffff19161480620006eb57507f5b5e139f000000000000000000000000000000000000000000000000000000007bffffffffffffffffffffffffffffffffffffffffffffffffffffffff1916827bffffffffffffffffffffffffffffffffffffffffffffffffffffffff1916145b80620006fe5750620006fd8262001d97565b5b9050919050565b606060008054620007169062003a33565b80601f0160208091040260200160405190810160405280929190818152602001828054620007449062003a33565b8015620007955780601f10620007695761010080835404028352916020019162000795565b820191906000526020600020905b8154815290600101906020018083116200077757829003601f168201915b5050505050905090565b6000620007ac8262001e01565b50620007b88262001e8e565b9050919050565b620007d58282620007cf62001ecb565b62001ed3565b5050565b6060600080600080620007ec8662001392565b6200082e576040517f08c379a0000000000000000000000000000000000000000000000000000000008152600401620008259062003ab8565b60405180910390fd5b6000600760008881526020019081526020016000209050806000018160010160009054906101000a900473ffffffffffffffffffffffffffffffffffffffff168260010160149054906101000a900460ff1683600201548460030160009054906101000a900473ffffffffffffffffffffffffffffffffffffffff16848054620008b89062003a33565b80601f0160208091040260200160405190810160405280929190818152602001828054620008e69062003a33565b8015620009375780601f106200090b5761010080835404028352916020019162000937565b820191906000526020600020905b8154815290600101906020018083116200091957829003601f168201915b50505050509450955095509550955095505091939590929450565b600073ffffffffffffffffffffffffffffffffffffffff168273ffffffffffffffffffffffffffffffffffffffff1603620009c75760006040517f64a0ae92000000000000000000000000000000000000000000000000000000008152600401620009be919062002f36565b60405180910390fd5b6000620009df8383620009d962001ecb565b62001ee7565b90508373ffffffffffffffffffffffffffffffffffffffff168173ffffffffffffffffffffffffffffffffffffffff161462000a58578382826040517f64283d7b00000000000000000000000000000000000000000000000000000000815260040162000a4f9392919062003ada565b60405180910390fd5b50505050565b60608060608060606000805b60088054905081101562000ae257600760006008838154811062000a935762000a9262003b17565b5b9060005260206000200154815260200190815260200160002060010160149054906101000a900460ff161562000ad457818062000ad09062003b75565b9250505b808060010191505062000a6a565b508067ffffffffffffffff81111562000b005762000aff62003566565b5b60405190808252806020026020018201604052801562000b2f5781602001602082028036833780820191505090505b5095508067ffffffffffffffff81111562000b4f5762000b4e62003566565b5b60405190808252806020026020018201604052801562000b8457816020015b606081526020019060019003908162000b6e5790505b5094508067ffffffffffffffff81111562000ba45762000ba362003566565b5b60405190808252806020026020018201604052801562000bd35781602001602082028036833780820191505090505b5093508067ffffffffffffffff81111562000bf35762000bf262003566565b5b60405190808252806020026020018201604052801562000c225781602001602082028036833780820191505090505b5092508067ffffffffffffffff81111562000c425762000c4162003566565b5b60405190808252806020026020018201604052801562000c715781602001602082028036833780820191505090505b5091506000805b60088054905081101562000ee65760006008828154811062000c9f5762000c9e62003b17565b5b9060005260206000200154905060006007600083815260200190815260200160002090508060010160149054906101000a900460ff161562000ed657818a858151811062000cf25762000cf162003b17565b5b60200260200101818152505080600001805462000d0f9062003a33565b80601f016020809104026020016040519081016040528092919081815260200182805462000d3d9062003a33565b801562000d8e5780601f1062000d625761010080835404028352916020019162000d8e565b820191906000526020600020905b81548152906001019060200180831162000d7057829003601f168201915b505050505089858151811062000da95762000da862003b17565b5b60200260200101819052508060010160009054906101000a900473ffffffffffffffffffffffffffffffffffffffff1688858151811062000def5762000dee62003b17565b5b602002602001019073ffffffffffffffffffffffffffffffffffffffff16908173ffffffffffffffffffffffffffffffffffffffff1681525050806002015487858151811062000e445762000e4362003b17565b5b6020026020010181815250508060030160009054906101000a900473ffffffffffffffffffffffffffffffffffffffff1686858151811062000e8b5762000e8a62003b17565b5b602002602001019073ffffffffffffffffffffffffffffffffffffffff16908173ffffffffffffffffffffffffffffffffffffffff1681525050838062000ed29062003b75565b9450505b5050808060010191505062000c78565b5050509091929394565b60095481565b606080606080606080600060088054905090508067ffffffffffffffff81111562000f265762000f2562003566565b5b60405190808252806020026020018201604052801562000f555781602001602082028036833780820191505090505b5096508067ffffffffffffffff81111562000f755762000f7462003566565b5b60405190808252806020026020018201604052801562000faa57816020015b606081526020019060019003908162000f945790505b5095508067ffffffffffffffff81111562000fca5762000fc962003566565b5b60405190808252806020026020018201604052801562000ff95781602001602082028036833780820191505090505b5094508067ffffffffffffffff81111562001019576200101862003566565b5b604051908082528060200260200182016040528015620010485781602001602082028036833780820191505090505b5093508067ffffffffffffffff81111562001068576200106762003566565b5b604051908082528060200260200182016040528015620010975781602001602082028036833780820191505090505b5092508067ffffffffffffffff811115620010b757620010b662003566565b5b604051908082528060200260200182016040528015620010e65781602001602082028036833780820191505090505b50915060005b8181101562001366576000600882815481106200110e576200110d62003b17565b5b906000526020600020015490506000600760008381526020019081526020016000209050818a848151811062001149576200114862003b17565b5b602002602001018181525050806000018054620011669062003a33565b80601f0160208091040260200160405190810160405280929190818152602001828054620011949062003a33565b8015620011e55780601f10620011b957610100808354040283529160200191620011e5565b820191906000526020600020905b815481529060010190602001808311620011c757829003601f168201915b50505050508984815181106200120057620011ff62003b17565b5b60200260200101819052508060010160009054906101000a900473ffffffffffffffffffffffffffffffffffffffff1688848151811062001246576200124562003b17565b5b602002602001019073ffffffffffffffffffffffffffffffffffffffff16908173ffffffffffffffffffffffffffffffffffffffff16815250508060010160149054906101000a900460ff16878481518110620012a857620012a762003b17565b5b6020026020010190151590811515815250508060020154868481518110620012d557620012d462003b17565b5b6020026020010181815250508060030160009054906101000a900473ffffffffffffffffffffffffffffffffffffffff168584815181106200131c576200131b62003b17565b5b602002602001019073ffffffffffffffffffffffffffffffffffffffff16908173ffffffffffffffffffffffffffffffffffffffff168152505050508080600101915050620010ec565b5050909192939495565b6200138d83838360405180602001604052806000815250620019e1565b505050565b60006007600083815260200190815260200160002060030160149054906101000a900460ff169050919050565b600060096000815480929190620013d69062003b75565b919050559050600083604051602001620013f1919062003c54565b604051602081830303815290604052905060008460405160200162001417919062003cca565b6040516020818303038152906040529050600082826103e86040516200143d9062002cdb565b6200144b9392919062003cf0565b604051809103906000f08015801562001468573d6000803e3d6000fd5b5090508073ffffffffffffffffffffffffffffffffffffffff1663a9059cbb336103e86040518363ffffffff1660e01b8152600401620014aa92919062003d3b565b6020604051808303816000875af1158015620014ca573d6000803e3d6000fd5b505050506040513d601f19601f82011682018060405250810190620014f0919062003d7f565b506040518060c001604052808781526020013373ffffffffffffffffffffffffffffffffffffffff1681526020016000151581526020018681526020018273ffffffffffffffffffffffffffffffffffffffff168152602001600115158152506007600086815260200190815260200160002060008201518160000190816200157a919062003f83565b5060208201518160010160006101000a81548173ffffffffffffffffffffffffffffffffffffffff021916908373ffffffffffffffffffffffffffffffffffffffff16021790555060408201518160010160146101000a81548160ff0219169083151502179055506060820151816002015560808201518160030160006101000a81548173ffffffffffffffffffffffffffffffffffffffff021916908373ffffffffffffffffffffffffffffffffffffffff16021790555060a08201518160030160146101000a81548160ff02191690831515021790555090505060088490806001815401808255809150506001900390600052602060002001600090919091909150556200168b33856200210a565b837f61b6ee4878c1f803275b02622af2da78b4e696643174802929fbc0c29b2ecceb87338885604051620016c394939291906200406a565b60405180910390a2505050505050565b6000620016e08262001e01565b9050919050565b60008073ffffffffffffffffffffffffffffffffffffffff168273ffffffffffffffffffffffffffffffffffffffff16036200175d5760006040517f89c62b6400000000000000000000000000000000000000000000000000000000815260040162001754919062002f36565b60405180910390fd5b600360008373ffffffffffffffffffffffffffffffffffffffff1673ffffffffffffffffffffffffffffffffffffffff168152602001908152602001600020549050919050565b620017ae6200212a565b620017ba6000620021ba565b565b620017c78262001392565b62001809576040517f08c379a0000000000000000000000000000000000000000000000000000000008152600401620018009062003ab8565b60405180910390fd5b60006007600084815260200190815260200160002090508060010160009054906101000a900473ffffffffffffffffffffffffffffffffffffffff1673ffffffffffffffffffffffffffffffffffffffff163373ffffffffffffffffffffffffffffffffffffffff1614620018b5576040517f08c379a0000000000000000000000000000000000000000000000000000000008152600401620018ac906200410e565b60405180910390fd5b818160020181905550827f945c1c4e99aa89f648fbfe3df471b916f719e16d960fcec0737d4d56bd69683883604051620018f09190620033da565b60405180910390a2505050565b6103e881565b6000600660009054906101000a900473ffffffffffffffffffffffffffffffffffffffff16905090565b6060600180546200193e9062003a33565b80601f01602080910402602001604051908101604052809291908181526020018280546200196c9062003a33565b8015620019bd5780601f106200199157610100808354040283529160200191620019bd565b820191906000526020600020905b8154815290600101906020018083116200199f57829003601f168201915b5050505050905090565b620019dd620019d562001ecb565b838362002280565b5050565b620019ee84848462000952565b620019fc84848484620023f4565b50505050565b606062001a0f8262001e01565b50600062001a1c620025bc565b9050600081511162001a3e576040518060200160405280600081525062001a6d565b8062001a4a84620025d3565b60405160200162001a5d92919062004130565b6040516020818303038152906040525b915050919050565b6008818154811062001a8657600080fd5b906000526020600020016000915090505481565b6000600560008473ffffffffffffffffffffffffffffffffffffffff1673ffffffffffffffffffffffffffffffffffffffff16815260200190815260200160002060008373ffffffffffffffffffffffffffffffffffffffff1673ffffffffffffffffffffffffffffffffffffffff16815260200190815260200160002060009054906101000a900460ff16905092915050565b62001b386200212a565b62001b438162001392565b62001b85576040517f08c379a000000000000000000000000000000000000000000000000000000000815260040162001b7c9062003ab8565b60405180910390fd5b60016007600083815260200190815260200160002060010160146101000a81548160ff021916908315150217905550807feb0e71efd80096e9d126bdde717795886189ce0d8cb53d03dfec442e37b1d02060405160405180910390a250565b62001bee6200212a565b600073ffffffffffffffffffffffffffffffffffffffff168173ffffffffffffffffffffffffffffffffffffffff160362001c635760006040517f1e4fbdf700000000000000000000000000000000000000000000000000000000815260040162001c5a919062002f36565b60405180910390fd5b62001c6e81620021ba565b50565b600760205280600052604060002060009150905080600001805462001c969062003a33565b80601f016020809104026020016040519081016040528092919081815260200182805462001cc49062003a33565b801562001d155780601f1062001ce95761010080835404028352916020019162001d15565b820191906000526020600020905b81548152906001019060200180831162001cf757829003601f168201915b5050505050908060010160009054906101000a900473ffffffffffffffffffffffffffffffffffffffff16908060010160149054906101000a900460ff16908060020154908060030160009054906101000a900473ffffffffffffffffffffffffffffffffffffffff16908060030160149054906101000a900460ff16905086565b60007f01ffc9a7000000000000000000000000000000000000000000000000000000007bffffffffffffffffffffffffffffffffffffffffffffffffffffffff1916827bffffffffffffffffffffffffffffffffffffffffffffffffffffffff1916149050919050565b60008062001e0f83620026ac565b9050600073ffffffffffffffffffffffffffffffffffffffff168173ffffffffffffffffffffffffffffffffffffffff160362001e8557826040517f7e27328900000000000000000000000000000000000000000000000000000000815260040162001e7c9190620033da565b60405180910390fd5b80915050919050565b60006004600083815260200190815260200160002060009054906101000a900473ffffffffffffffffffffffffffffffffffffffff169050919050565b600033905090565b62001ee28383836001620026e9565b505050565b60008062001ef584620026ac565b9050600073ffffffffffffffffffffffffffffffffffffffff168373ffffffffffffffffffffffffffffffffffffffff161462001f3a5762001f39818486620028ba565b5b600073ffffffffffffffffffffffffffffffffffffffff168173ffffffffffffffffffffffffffffffffffffffff161462001fce5762001f7f600085600080620026e9565b6001600360008373ffffffffffffffffffffffffffffffffffffffff1673ffffffffffffffffffffffffffffffffffffffff168152602001908152602001600020600082825403925050819055505b600073ffffffffffffffffffffffffffffffffffffffff168573ffffffffffffffffffffffffffffffffffffffff161462002052576001600360008773ffffffffffffffffffffffffffffffffffffffff1673ffffffffffffffffffffffffffffffffffffffff168152602001908152602001600020600082825401925050819055505b846002600086815260200190815260200160002060006101000a81548173ffffffffffffffffffffffffffffffffffffffff021916908373ffffffffffffffffffffffffffffffffffffffff160217905550838573ffffffffffffffffffffffffffffffffffffffff168273ffffffffffffffffffffffffffffffffffffffff167fddf252ad1be2c89b69c2b068fc378daa952ba7f163c4a11628f55a4df523b3ef60405160405180910390a4809150509392505050565b6200212682826040518060200160405280600081525062002986565b5050565b6200213462001ecb565b73ffffffffffffffffffffffffffffffffffffffff166200215462001903565b73ffffffffffffffffffffffffffffffffffffffff1614620021b8576200217a62001ecb565b6040517f118cdaa7000000000000000000000000000000000000000000000000000000008152600401620021af919062002f36565b60405180910390fd5b565b6000600660009054906101000a900473ffffffffffffffffffffffffffffffffffffffff16905081600660006101000a81548173ffffffffffffffffffffffffffffffffffffffff021916908373ffffffffffffffffffffffffffffffffffffffff1602179055508173ffffffffffffffffffffffffffffffffffffffff168173ffffffffffffffffffffffffffffffffffffffff167f8be0079c531659141344cd1fd0a4f28419497f9722a3daafe3b4186f6b6457e060405160405180910390a35050565b600073ffffffffffffffffffffffffffffffffffffffff168273ffffffffffffffffffffffffffffffffffffffff1603620022f457816040517f5b08ba18000000000000000000000000000000000000000000000000000000008152600401620022eb919062002f36565b60405180910390fd5b80600560008573ffffffffffffffffffffffffffffffffffffffff1673ffffffffffffffffffffffffffffffffffffffff16815260200190815260200160002060008473ffffffffffffffffffffffffffffffffffffffff1673ffffffffffffffffffffffffffffffffffffffff16815260200190815260200160002060006101000a81548160ff0219169083151502179055508173ffffffffffffffffffffffffffffffffffffffff168373ffffffffffffffffffffffffffffffffffffffff167f17307eab39ab6107e8899845ad3d59bd9653f200f220920489ca2b5937696c3183604051620023e7919062002da9565b60405180910390a3505050565b60008373ffffffffffffffffffffffffffffffffffffffff163b1115620025b6578273ffffffffffffffffffffffffffffffffffffffff1663150b7a026200243b62001ecb565b8685856040518563ffffffff1660e01b81526004016200245f9493929190620041b5565b6020604051808303816000875af19250505080156200249e57506040513d601f19601f820116820180604052508101906200249b919062004220565b60015b62002528573d8060008114620024d1576040519150601f19603f3d011682016040523d82523d6000602084013e620024d6565b606091505b5060008151036200252057836040517f64a0ae9200000000000000000000000000000000000000000000000000000000815260040162002517919062002f36565b60405180910390fd5b805181602001fd5b63150b7a0260e01b7bffffffffffffffffffffffffffffffffffffffffffffffffffffffff1916817bffffffffffffffffffffffffffffffffffffffffffffffffffffffff191614620025b457836040517f64a0ae92000000000000000000000000000000000000000000000000000000008152600401620025ab919062002f36565b60405180910390fd5b505b50505050565b606060405180602001604052806000815250905090565b606060006001620025e484620029a6565b01905060008167ffffffffffffffff81111562002606576200260562003566565b5b6040519080825280601f01601f191660200182016040528015620026395781602001600182028036833780820191505090505b509050600082602001820190505b600115620026a1578080600190039150507f3031323334353637383961626364656600000000000000000000000000000000600a86061a8153600a858162002694576200269362004252565b5b0494506000850362002647575b819350505050919050565b60006002600083815260200190815260200160002060009054906101000a900473ffffffffffffffffffffffffffffffffffffffff169050919050565b8080620027235750600073ffffffffffffffffffffffffffffffffffffffff168273ffffffffffffffffffffffffffffffffffffffff1614155b1562002862576000620027368462001e01565b9050600073ffffffffffffffffffffffffffffffffffffffff168373ffffffffffffffffffffffffffffffffffffffff1614158015620027a257508273ffffffffffffffffffffffffffffffffffffffff168173ffffffffffffffffffffffffffffffffffffffff1614155b8015620027b85750620027b6818462001a9a565b155b15620027fd57826040517fa9fbf51f000000000000000000000000000000000000000000000000000000008152600401620027f4919062002f36565b60405180910390fd5b81156200286057838573ffffffffffffffffffffffffffffffffffffffff168273ffffffffffffffffffffffffffffffffffffffff167f8c5be1e5ebec7d5bd14f71427d1e84f3dd0314c0f7b2291e5b200ac8c7c3b92560405160405180910390a45b505b836004600085815260200190815260200160002060006101000a81548173ffffffffffffffffffffffffffffffffffffffff021916908373ffffffffffffffffffffffffffffffffffffffff16021790555050505050565b620028c783838362002b12565b6200298157600073ffffffffffffffffffffffffffffffffffffffff168373ffffffffffffffffffffffffffffffffffffffff16036200294057806040517f7e273289000000000000000000000000000000000000000000000000000000008152600401620029379190620033da565b60405180910390fd5b81816040517f177e802f0000000000000000000000000000000000000000000000000000000081526004016200297892919062003d3b565b60405180910390fd5b505050565b62002992838362002bda565b620029a16000848484620023f4565b505050565b600080600090507a184f03e93ff9f4daa797ed6e38ed64bf6a1f010000000000000000831062002a08577a184f03e93ff9f4daa797ed6e38ed64bf6a1f0100000000000000008381620029fe57620029fd62004252565b5b0492506040810190505b6d04ee2d6d415b85acef8100000000831062002a49576d04ee2d6d415b85acef8100000000838162002a3f5762002a3e62004252565b5b0492506020810190505b662386f26fc10000831062002a7c57662386f26fc10000838162002a725762002a7162004252565b5b0492506010810190505b6305f5e100831062002aa9576305f5e100838162002a9f5762002a9e62004252565b5b0492506008810190505b612710831062002ad257612710838162002ac85762002ac762004252565b5b0492506004810190505b6064831062002af9576064838162002aef5762002aee62004252565b5b0492506002810190505b600a831062002b09576001810190505b80915050919050565b60008073ffffffffffffffffffffffffffffffffffffffff168373ffffffffffffffffffffffffffffffffffffffff161415801562002bd157508273ffffffffffffffffffffffffffffffffffffffff168473ffffffffffffffffffffffffffffffffffffffff16148062002b8f575062002b8e848462001a9a565b5b8062002bd057508273ffffffffffffffffffffffffffffffffffffffff1662002bb88362001e8e565b73ffffffffffffffffffffffffffffffffffffffff16145b5b90509392505050565b600073ffffffffffffffffffffffffffffffffffffffff168273ffffffffffffffffffffffffffffffffffffffff160362002c4f5760006040517f64a0ae9200000000000000000000000000000000000000000000000000000000815260040162002c46919062002f36565b60405180910390fd5b600062002c5f8383600062001ee7565b9050600073ffffffffffffffffffffffffffffffffffffffff168173ffffffffffffffffffffffffffffffffffffffff161462002cd65760006040517f73c6ac6e00000000000000000000000000000000000000000000000000000000815260040162002ccd919062002f36565b60405180910390fd5b505050565b6120a0806200428283390190565b6000604051905090565b600080fd5b600080fd5b60007fffffffff0000000000000000000000000000000000000000000000000000000082169050919050565b62002d348162002cfd565b811462002d4057600080fd5b50565b60008135905062002d548162002d29565b92915050565b60006020828403121562002d735762002d7262002cf3565b5b600062002d838482850162002d43565b91505092915050565b60008115159050919050565b62002da38162002d8c565b82525050565b600060208201905062002dc0600083018462002d98565b92915050565b600081519050919050565b600082825260208201905092915050565b60005b8381101562002e0257808201518184015260208101905062002de5565b60008484015250505050565b6000601f19601f8301169050919050565b600062002e2c8262002dc6565b62002e38818562002dd1565b935062002e4a81856020860162002de2565b62002e558162002e0e565b840191505092915050565b6000602082019050818103600083015262002e7c818462002e1f565b905092915050565b6000819050919050565b62002e998162002e84565b811462002ea557600080fd5b50565b60008135905062002eb98162002e8e565b92915050565b60006020828403121562002ed85762002ed762002cf3565b5b600062002ee88482850162002ea8565b91505092915050565b600073ffffffffffffffffffffffffffffffffffffffff82169050919050565b600062002f1e8262002ef1565b9050919050565b62002f308162002f11565b82525050565b600060208201905062002f4d600083018462002f25565b92915050565b62002f5e8162002f11565b811462002f6a57600080fd5b50565b60008135905062002f7e8162002f53565b92915050565b6000806040838503121562002f9e5762002f9d62002cf3565b5b600062002fae8582860162002f6d565b925050602062002fc18582860162002ea8565b9150509250929050565b62002fd68162002e84565b82525050565b600060a082019050818103600083015262002ff8818862002e1f565b905062003009602083018762002f25565b62003018604083018662002d98565b62003027606083018562002fcb565b62003036608083018462002f25565b9695505050505050565b6000806000606084860312156200305c576200305b62002cf3565b5b60006200306c8682870162002f6d565b93505060206200307f8682870162002f6d565b9250506040620030928682870162002ea8565b9150509250925092565b600081519050919050565b600082825260208201905092915050565b6000819050602082019050919050565b620030d38162002e84565b82525050565b6000620030e78383620030c8565b60208301905092915050565b6000602082019050919050565b60006200310d826200309c565b620031198185620030a7565b93506200312683620030b8565b8060005b838110156200315d578151620031418882620030d9565b97506200314e83620030f3565b9250506001810190506200312a565b5085935050505092915050565b600081519050919050565b600082825260208201905092915050565b6000819050602082019050919050565b600082825260208201905092915050565b6000620031b48262002dc6565b620031c0818562003196565b9350620031d281856020860162002de2565b620031dd8162002e0e565b840191505092915050565b6000620031f68383620031a7565b905092915050565b6000602082019050919050565b600062003218826200316a565b62003224818562003175565b935083602082028501620032388562003186565b8060005b858110156200327a5784840389528151620032588582620031e8565b94506200326583620031fe565b925060208a019950506001810190506200323c565b50829750879550505050505092915050565b600081519050919050565b600082825260208201905092915050565b6000819050602082019050919050565b620032c38162002f11565b82525050565b6000620032d78383620032b8565b60208301905092915050565b6000602082019050919050565b6000620032fd826200328c565b62003309818562003297565b93506200331683620032a8565b8060005b838110156200334d578151620033318882620032c9565b97506200333e83620032e3565b9250506001810190506200331a565b5085935050505092915050565b600060a082019050818103600083015262003376818862003100565b905081810360208301526200338c81876200320b565b90508181036040830152620033a28186620032f0565b90508181036060830152620033b8818562003100565b90508181036080830152620033ce8184620032f0565b90509695505050505050565b6000602082019050620033f1600083018462002fcb565b92915050565b600081519050919050565b600082825260208201905092915050565b6000819050602082019050919050565b6200342e8162002d8c565b82525050565b600062003442838362003423565b60208301905092915050565b6000602082019050919050565b60006200346882620033f7565b62003474818562003402565b9350620034818362003413565b8060005b83811015620034b85781516200349c888262003434565b9750620034a9836200344e565b92505060018101905062003485565b5085935050505092915050565b600060c0820190508181036000830152620034e1818962003100565b90508181036020830152620034f781886200320b565b905081810360408301526200350d8187620032f0565b905081810360608301526200352381866200345b565b9050818103608083015262003539818562003100565b905081810360a08301526200354f8184620032f0565b9050979650505050505050565b600080fd5b600080fd5b7f4e487b7100000000000000000000000000000000000000000000000000000000600052604160045260246000fd5b620035a08262002e0e565b810181811067ffffffffffffffff82111715620035c257620035c162003566565b5b80604052505050565b6000620035d762002ce9565b9050620035e5828262003595565b919050565b600067ffffffffffffffff82111562003608576200360762003566565b5b620036138262002e0e565b9050602081019050919050565b82818337600083830152505050565b6000620036466200364084620035ea565b620035cb565b90508281526020810184848401111562003665576200366462003561565b5b6200367284828562003620565b509392505050565b600082601f8301126200369257620036916200355c565b5b8135620036a48482602086016200362f565b91505092915050565b60008060408385031215620036c757620036c662002cf3565b5b600083013567ffffffffffffffff811115620036e857620036e762002cf8565b5b620036f6858286016200367a565b9250506020620037098582860162002ea8565b9150509250929050565b6000602082840312156200372c576200372b62002cf3565b5b60006200373c8482850162002f6d565b91505092915050565b600080604083850312156200375f576200375e62002cf3565b5b60006200376f8582860162002ea8565b9250506020620037828582860162002ea8565b9150509250929050565b620037978162002d8c565b8114620037a357600080fd5b50565b600081359050620037b7816200378c565b92915050565b60008060408385031215620037d757620037d662002cf3565b5b6000620037e78582860162002f6d565b9250506020620037fa85828601620037a6565b9150509250929050565b600067ffffffffffffffff82111562003822576200382162003566565b5b6200382d8262002e0e565b9050602081019050919050565b6000620038516200384b8462003804565b620035cb565b90508281526020810184848401111562003870576200386f62003561565b5b6200387d84828562003620565b509392505050565b600082601f8301126200389d576200389c6200355c565b5b8135620038af8482602086016200383a565b91505092915050565b60008060008060808587031215620038d557620038d462002cf3565b5b6000620038e58782880162002f6d565b9450506020620038f88782880162002f6d565b93505060406200390b8782880162002ea8565b925050606085013567ffffffffffffffff8111156200392f576200392e62002cf8565b5b6200393d8782880162003885565b91505092959194509250565b6000806040838503121562003963576200396262002cf3565b5b6000620039738582860162002f6d565b9250506020620039868582860162002f6d565b9150509250929050565b600060c0820190508181036000830152620039ac818962002e1f565b9050620039bd602083018862002f25565b620039cc604083018762002d98565b620039db606083018662002fcb565b620039ea608083018562002f25565b620039f960a083018462002d98565b979650505050505050565b7f4e487b7100000000000000000000000000000000000000000000000000000000600052602260045260246000fd5b6000600282049050600182168062003a4c57607f821691505b60208210810362003a625762003a6162003a04565b5b50919050565b7f4e6f742065786973740000000000000000000000000000000000000000000000600082015250565b600062003aa060098362002dd1565b915062003aad8262003a68565b602082019050919050565b6000602082019050818103600083015262003ad38162003a91565b9050919050565b600060608201905062003af1600083018662002f25565b62003b00602083018562002fcb565b62003b0f604083018462002f25565b949350505050565b7f4e487b7100000000000000000000000000000000000000000000000000000000600052603260045260246000fd5b7f4e487b7100000000000000000000000000000000000000000000000000000000600052601160045260246000fd5b600062003b828262002e84565b91507fffffffffffffffffffffffffffffffffffffffffffffffffffffffffffffffff820362003bb75762003bb662003b46565b5b600182019050919050565b600081905092915050565b7f4672616374696f6e200000000000000000000000000000000000000000000000600082015250565b600062003c0560098362003bc2565b915062003c128262003bcd565b600982019050919050565b600062003c2a8262002dc6565b62003c36818562003bc2565b935062003c4881856020860162002de2565b80840191505092915050565b600062003c618262003bf6565b915062003c6f828462003c1d565b915081905092915050565b7f4600000000000000000000000000000000000000000000000000000000000000600082015250565b600062003cb260018362003bc2565b915062003cbf8262003c7a565b600182019050919050565b600062003cd78262003ca3565b915062003ce5828462003c1d565b915081905092915050565b6000606082019050818103600083015262003d0c818662002e1f565b9050818103602083015262003d22818562002e1f565b905062003d33604083018462002fcb565b949350505050565b600060408201905062003d52600083018562002f25565b62003d61602083018462002fcb565b9392505050565b60008151905062003d79816200378c565b92915050565b60006020828403121562003d985762003d9762002cf3565b5b600062003da88482850162003d68565b91505092915050565b60008190508160005260206000209050919050565b60006020601f8301049050919050565b600082821b905092915050565b60006008830262003e157fffffffffffffffffffffffffffffffffffffffffffffffffffffffffffffffff8262003dd6565b62003e21868362003dd6565b95508019841693508086168417925050509392505050565b6000819050919050565b600062003e6462003e5e62003e588462002e84565b62003e39565b62002e84565b9050919050565b6000819050919050565b62003e808362003e43565b62003e9862003e8f8262003e6b565b84845462003de3565b825550505050565b600090565b62003eaf62003ea0565b62003ebc81848462003e75565b505050565b5b8181101562003ee45762003ed860008262003ea5565b60018101905062003ec2565b5050565b601f82111562003f335762003efd8162003db1565b62003f088462003dc6565b8101602085101562003f18578190505b62003f3062003f278562003dc6565b83018262003ec1565b50505b505050565b600082821c905092915050565b600062003f586000198460080262003f38565b1980831691505092915050565b600062003f73838362003f45565b9150826002028217905092915050565b62003f8e8262002dc6565b67ffffffffffffffff81111562003faa5762003fa962003566565b5b62003fb6825462003a33565b62003fc382828562003ee8565b600060209050601f83116001811462003ffb576000841562003fe6578287015190505b62003ff2858262003f65565b86555062004062565b601f1984166200400b8662003db1565b60005b8281101562004035578489015182556001820191506020850194506020810190506200400e565b8683101562004055578489015162004051601f89168262003f45565b8355505b6001600288020188555050505b505050505050565b6000608082019050818103600083015262004086818762002e1f565b905062004097602083018662002f25565b620040a6604083018562002fcb565b620040b5606083018462002f25565b95945050505050565b7f4e6f74206f776e65720000000000000000000000000000000000000000000000600082015250565b6000620040f660098362002dd1565b91506200410382620040be565b602082019050919050565b600060208201905081810360008301526200412981620040e7565b9050919050565b60006200413e828562003c1d565b91506200414c828462003c1d565b91508190509392505050565b600081519050919050565b600082825260208201905092915050565b6000620041818262004158565b6200418d818562004163565b93506200419f81856020860162002de2565b620041aa8162002e0e565b840191505092915050565b6000608082019050620041cc600083018762002f25565b620041db602083018662002f25565b620041ea604083018562002fcb565b8181036060830152620041fe818462004174565b905095945050505050565b6000815190506200421a8162002d29565b92915050565b60006020828403121562004239576200423862002cf3565b5b6000620042498482850162004209565b91505092915050565b7f4e487b7100000000000000000000000000000000000000000000000000000000600052601260045260246000fdfe60806040523480156200001157600080fd5b50604051620020a0380380620020a08339818101604052810190620000379190620005c0565b828281600390816200004a91906200089b565b5080600490816200005c91906200089b565b5050506200007133826200013560201b60201c565b6005339080600181540180825580915050600190039060005260206000200160009091909190916101000a81548173ffffffffffffffffffffffffffffffffffffffff021916908373ffffffffffffffffffffffffffffffffffffffff1602179055506001600660003373ffffffffffffffffffffffffffffffffffffffff1673ffffffffffffffffffffffffffffffffffffffff16815260200190815260200160002060006101000a81548160ff02191690831515021790555050505062000ab9565b600073ffffffffffffffffffffffffffffffffffffffff168273ffffffffffffffffffffffffffffffffffffffff1603620001aa5760006040517fec442f05000000000000000000000000000000000000000000000000000000008152600401620001a19190620009c7565b60405180910390fd5b620001be60008383620001c260201b60201c565b5050565b600073ffffffffffffffffffffffffffffffffffffffff168373ffffffffffffffffffffffffffffffffffffffff1603620002185780600260008282546200020b919062000a13565b92505081905550620002ee565b60008060008573ffffffffffffffffffffffffffffffffffffffff1673ffffffffffffffffffffffffffffffffffffffff16815260200190815260200160002054905081811015620002a7578381836040517fe450d38c0000000000000000000000000000000000000000000000000000000081526004016200029e9392919062000a5f565b60405180910390fd5b8181036000808673ffffffffffffffffffffffffffffffffffffffff1673ffffffffffffffffffffffffffffffffffffffff16815260200190815260200160002081905550505b600073ffffffffffffffffffffffffffffffffffffffff168273ffffffffffffffffffffffffffffffffffffffff160362000339578060026000828254039250508190555062000386565b806000808473ffffffffffffffffffffffffffffffffffffffff1673ffffffffffffffffffffffffffffffffffffffff168152602001908152602001600020600082825401925050819055505b8173ffffffffffffffffffffffffffffffffffffffff168373ffffffffffffffffffffffffffffffffffffffff167fddf252ad1be2c89b69c2b068fc378daa952ba7f163c4a11628f55a4df523b3ef83604051620003e5919062000a9c565b60405180910390a3505050565b6000604051905090565b600080fd5b600080fd5b600080fd5b600080fd5b6000601f19601f8301169050919050565b7f4e487b7100000000000000000000000000000000000000000000000000000000600052604160045260246000fd5b6200045b8262000410565b810181811067ffffffffffffffff821117156200047d576200047c62000421565b5b80604052505050565b600062000492620003f2565b9050620004a0828262000450565b919050565b600067ffffffffffffffff821115620004c357620004c262000421565b5b620004ce8262000410565b9050602081019050919050565b60005b83811015620004fb578082015181840152602081019050620004de565b60008484015250505050565b60006200051e6200051884620004a5565b62000486565b9050828152602081018484840111156200053d576200053c6200040b565b5b6200054a848285620004db565b509392505050565b600082601f8301126200056a576200056962000406565b5b81516200057c84826020860162000507565b91505092915050565b6000819050919050565b6200059a8162000585565b8114620005a657600080fd5b50565b600081519050620005ba816200058f565b92915050565b600080600060608486031215620005dc57620005db620003fc565b5b600084015167ffffffffffffffff811115620005fd57620005fc62000401565b5b6200060b8682870162000552565b935050602084015167ffffffffffffffff8111156200062f576200062e62000401565b5b6200063d8682870162000552565b92505060406200065086828701620005a9565b9150509250925092565b600081519050919050565b7f4e487b7100000000000000000000000000000000000000000000000000000000600052602260045260246000fd5b60006002820490506001821680620006ad57607f821691505b602082108103620006c357620006c262000665565b5b50919050565b60008190508160005260206000209050919050565b60006020601f8301049050919050565b600082821b905092915050565b6000600883026200072d7fffffffffffffffffffffffffffffffffffffffffffffffffffffffffffffffff82620006ee565b620007398683620006ee565b95508019841693508086168417925050509392505050565b6000819050919050565b60006200077c62000776620007708462000585565b62000751565b62000585565b9050919050565b6000819050919050565b62000798836200075b565b620007b0620007a78262000783565b848454620006fb565b825550505050565b600090565b620007c7620007b8565b620007d48184846200078d565b505050565b5b81811015620007fc57620007f0600082620007bd565b600181019050620007da565b5050565b601f8211156200084b576200081581620006c9565b6200082084620006de565b8101602085101562000830578190505b620008486200083f85620006de565b830182620007d9565b50505b505050565b600082821c905092915050565b6000620008706000198460080262000850565b1980831691505092915050565b60006200088b83836200085d565b9150826002028217905092915050565b620008a6826200065a565b67ffffffffffffffff811115620008c257620008c162000421565b5b620008ce825462000694565b620008db82828562000800565b600060209050601f831160018114620009135760008415620008fe578287015190505b6200090a85826200087d565b8655506200097a565b601f1984166200092386620006c9565b60005b828110156200094d5784890151825560018201915060208501945060208101905062000926565b868310156200096d578489015162000969601f8916826200085d565b8355505b6001600288020188555050505b505050505050565b600073ffffffffffffffffffffffffffffffffffffffff82169050919050565b6000620009af8262000982565b9050919050565b620009c181620009a2565b82525050565b6000602082019050620009de6000830184620009b6565b92915050565b7f4e487b7100000000000000000000000000000000000000000000000000000000600052601160045260246000fd5b600062000a208262000585565b915062000a2d8362000585565b925082820190508082111562000a485762000a47620009e4565b5b92915050565b62000a598162000585565b82525050565b600060608201905062000a766000830186620009b6565b62000a85602083018562000a4e565b62000a94604083018462000a4e565b949350505050565b600060208201905062000ab3600083018462000a4e565b92915050565b6115d78062000ac96000396000f3fe608060405234801561001057600080fd5b506004361061009e5760003560e01c80635fe8e7cc116100665780635fe8e7cc1461015d57806370a082311461017c57806395d89b41146101ac578063a9059cbb146101ca578063dd62ed3e146101fa5761009e565b806306fdde03146100a3578063095ea7b3146100c157806318160ddd146100f157806323b872dd1461010f578063313ce5671461013f575b600080fd5b6100ab61022a565b6040516100b89190610fd2565b60405180910390f35b6100db60048036038101906100d6919061108d565b6102bc565b6040516100e891906110e8565b60405180910390f35b6100f96102df565b6040516101069190611112565b60405180910390f35b6101296004803603810190610124919061112d565b6102e9565b60405161013691906110e8565b60405180910390f35b610147610309565b604051610154919061119c565b60405180910390f35b610165610312565b604051610173929190611333565b60405180910390f35b6101966004803603810190610191919061136a565b610612565b6040516101a39190611112565b60405180910390f35b6101b461065a565b6040516101c19190610fd2565b60405180910390f35b6101e460048036038101906101df919061108d565b6106ec565b6040516101f191906110e8565b60405180910390f35b610214600480360381019061020f9190611397565b610716565b6040516102219190611112565b60405180910390f35b60606003805461023990611406565b80601f016020809104026020016040519081016040528092919081815260200182805461026590611406565b80156102b25780601f10610287576101008083540402835291602001916102b2565b820191906000526020600020905b81548152906001019060200180831161029557829003601f168201915b5050505050905090565b6000806102c761079d565b90506102d48185856107a5565b600191505092915050565b6000600254905090565b60006102f584846107b7565b61030084848461096c565b90509392505050565b60006012905090565b606080600060058054905067ffffffffffffffff81111561033657610335611437565b5b6040519080825280602002602001820160405280156103645781602001602082028036833780820191505090505b5090506000805b60058054905081101561048a5760066000600583815481106103905761038f611466565b5b9060005260206000200160009054906101000a900473ffffffffffffffffffffffffffffffffffffffff1673ffffffffffffffffffffffffffffffffffffffff1673ffffffffffffffffffffffffffffffffffffffff16815260200190815260200160002060009054906101000a900460ff161561047d5761044f6005828154811061041f5761041e611466565b5b9060005260206000200160009054906101000a900473ffffffffffffffffffffffffffffffffffffffff16610612565b83838151811061046257610461611466565b5b6020026020010181815250508180610479906114c4565b9250505b808060010191505061036b565b5060008167ffffffffffffffff8111156104a7576104a6611437565b5b6040519080825280602002602001820160405280156104d55781602001602082028036833780820191505090505b50905060008267ffffffffffffffff8111156104f4576104f3611437565b5b6040519080825280602002602001820160405280156105225781602001602082028036833780820191505090505b50905060005b83811015610603576005818154811061054457610543611466565b5b9060005260206000200160009054906101000a900473ffffffffffffffffffffffffffffffffffffffff1683828151811061058257610581611466565b5b602002602001019073ffffffffffffffffffffffffffffffffffffffff16908173ffffffffffffffffffffffffffffffffffffffff16815250508481815181106105cf576105ce611466565b5b60200260200101518282815181106105ea576105e9611466565b5b6020026020010181815250508080600101915050610528565b50818195509550505050509091565b60008060008373ffffffffffffffffffffffffffffffffffffffff1673ffffffffffffffffffffffffffffffffffffffff168152602001908152602001600020549050919050565b60606004805461066990611406565b80601f016020809104026020016040519081016040528092919081815260200182805461069590611406565b80156106e25780601f106106b7576101008083540402835291602001916106e2565b820191906000526020600020905b8154815290600101906020018083116106c557829003601f168201915b5050505050905090565b6000806106f761079d565b905061070381856107b7565b61070d848461099b565b91505092915050565b6000600160008473ffffffffffffffffffffffffffffffffffffffff1673ffffffffffffffffffffffffffffffffffffffff16815260200190815260200160002060008373ffffffffffffffffffffffffffffffffffffffff1673ffffffffffffffffffffffffffffffffffffffff16815260200190815260200160002054905092915050565b600033905090565b6107b283838360016109be565b505050565b600660008273ffffffffffffffffffffffffffffffffffffffff1673ffffffffffffffffffffffffffffffffffffffff16815260200190815260200160002060009054906101000a900460ff1615801561083e5750600073ffffffffffffffffffffffffffffffffffffffff168173ffffffffffffffffffffffffffffffffffffffff1614155b156108ff576005819080600181540180825580915050600190039060005260206000200160009091909190916101000a81548173ffffffffffffffffffffffffffffffffffffffff021916908373ffffffffffffffffffffffffffffffffffffffff1602179055506001600660008373ffffffffffffffffffffffffffffffffffffffff1673ffffffffffffffffffffffffffffffffffffffff16815260200190815260200160002060006101000a81548160ff0219169083151502179055505b600061090a83610612565b03610968576000600660008473ffffffffffffffffffffffffffffffffffffffff1673ffffffffffffffffffffffffffffffffffffffff16815260200190815260200160002060006101000a81548160ff0219169083151502179055505b5050565b60008061097761079d565b9050610984858285610b95565b61098f858585610c29565b60019150509392505050565b6000806109a661079d565b90506109b3818585610c29565b600191505092915050565b600073ffffffffffffffffffffffffffffffffffffffff168473ffffffffffffffffffffffffffffffffffffffff1603610a305760006040517fe602df05000000000000000000000000000000000000000000000000000000008152600401610a27919061151b565b60405180910390fd5b600073ffffffffffffffffffffffffffffffffffffffff168373ffffffffffffffffffffffffffffffffffffffff1603610aa25760006040517f94280d62000000000000000000000000000000000000000000000000000000008152600401610a99919061151b565b60405180910390fd5b81600160008673ffffffffffffffffffffffffffffffffffffffff1673ffffffffffffffffffffffffffffffffffffffff16815260200190815260200160002060008573ffffffffffffffffffffffffffffffffffffffff1673ffffffffffffffffffffffffffffffffffffffff168152602001908152602001600020819055508015610b8f578273ffffffffffffffffffffffffffffffffffffffff168473ffffffffffffffffffffffffffffffffffffffff167f8c5be1e5ebec7d5bd14f71427d1e84f3dd0314c0f7b2291e5b200ac8c7c3b92584604051610b869190611112565b60405180910390a35b50505050565b6000610ba18484610716565b90507fffffffffffffffffffffffffffffffffffffffffffffffffffffffffffffffff8114610c235781811015610c13578281836040517ffb8f41b2000000000000000000000000000000000000000000000000000000008152600401610c0a93929190611536565b60405180910390fd5b610c22848484840360006109be565b5b50505050565b600073ffffffffffffffffffffffffffffffffffffffff168373ffffffffffffffffffffffffffffffffffffffff1603610c9b5760006040517f96c6fd1e000000000000000000000000000000000000000000000000000000008152600401610c92919061151b565b60405180910390fd5b600073ffffffffffffffffffffffffffffffffffffffff168273ffffffffffffffffffffffffffffffffffffffff1603610d0d5760006040517fec442f05000000000000000000000000000000000000000000000000000000008152600401610d04919061151b565b60405180910390fd5b610d18838383610d1d565b505050565b600073ffffffffffffffffffffffffffffffffffffffff168373ffffffffffffffffffffffffffffffffffffffff1603610d6f578060026000828254610d63919061156d565b92505081905550610e42565b60008060008573ffffffffffffffffffffffffffffffffffffffff1673ffffffffffffffffffffffffffffffffffffffff16815260200190815260200160002054905081811015610dfb578381836040517fe450d38c000000000000000000000000000000000000000000000000000000008152600401610df293929190611536565b60405180910390fd5b8181036000808673ffffffffffffffffffffffffffffffffffffffff1673ffffffffffffffffffffffffffffffffffffffff16815260200190815260200160002081905550505b600073ffffffffffffffffffffffffffffffffffffffff168273ffffffffffffffffffffffffffffffffffffffff1603610e8b5780600260008282540392505081905550610ed8565b806000808473ffffffffffffffffffffffffffffffffffffffff1673ffffffffffffffffffffffffffffffffffffffff168152602001908152602001600020600082825401925050819055505b8173ffffffffffffffffffffffffffffffffffffffff168373ffffffffffffffffffffffffffffffffffffffff167fddf252ad1be2c89b69c2b068fc378daa952ba7f163c4a11628f55a4df523b3ef83604051610f359190611112565b60405180910390a3505050565b600081519050919050565b600082825260208201905092915050565b60005b83811015610f7c578082015181840152602081019050610f61565b60008484015250505050565b6000601f19601f8301169050919050565b6000610fa482610f42565b610fae8185610f4d565b9350610fbe818560208601610f5e565b610fc781610f88565b840191505092915050565b60006020820190508181036000830152610fec8184610f99565b905092915050565b600080fd5b600073ffffffffffffffffffffffffffffffffffffffff82169050919050565b600061102482610ff9565b9050919050565b61103481611019565b811461103f57600080fd5b50565b6000813590506110518161102b565b92915050565b6000819050919050565b61106a81611057565b811461107557600080fd5b50565b60008135905061108781611061565b92915050565b600080604083850312156110a4576110a3610ff4565b5b60006110b285828601611042565b92505060206110c385828601611078565b9150509250929050565b60008115159050919050565b6110e2816110cd565b82525050565b60006020820190506110fd60008301846110d9565b92915050565b61110c81611057565b82525050565b60006020820190506111276000830184611103565b92915050565b60008060006060848603121561114657611145610ff4565b5b600061115486828701611042565b935050602061116586828701611042565b925050604061117686828701611078565b9150509250925092565b600060ff82169050919050565b61119681611180565b82525050565b60006020820190506111b1600083018461118d565b92915050565b600081519050919050565b600082825260208201905092915050565b6000819050602082019050919050565b6111ec81611019565b82525050565b60006111fe83836111e3565b60208301905092915050565b6000602082019050919050565b6000611222826111b7565b61122c81856111c2565b9350611237836111d3565b8060005b8381101561126857815161124f88826111f2565b975061125a8361120a565b92505060018101905061123b565b5085935050505092915050565b600081519050919050565b600082825260208201905092915050565b6000819050602082019050919050565b6112aa81611057565b82525050565b60006112bc83836112a1565b60208301905092915050565b6000602082019050919050565b60006112e082611275565b6112ea8185611280565b93506112f583611291565b8060005b8381101561132657815161130d88826112b0565b9750611318836112c8565b9250506001810190506112f9565b5085935050505092915050565b6000604082019050818103600083015261134d8185611217565b9050818103602083015261136181846112d5565b90509392505050565b6000602082840312156113805761137f610ff4565b5b600061138e84828501611042565b91505092915050565b600080604083850312156113ae576113ad610ff4565b5b60006113bc85828601611042565b92505060206113cd85828601611042565b9150509250929050565b7f4e487b7100000000000000000000000000000000000000000000000000000000600052602260045260246000fd5b6000600282049050600182168061141e57607f821691505b602082108103611431576114306113d7565b5b50919050565b7f4e487b7100000000000000000000000000000000000000000000000000000000600052604160045260246000fd5b7f4e487b7100000000000000000000000000000000000000000000000000000000600052603260045260246000fd5b7f4e487b7100000000000000000000000000000000000000000000000000000000600052601160045260246000fd5b60006114cf82611057565b91507fffffffffffffffffffffffffffffffffffffffffffffffffffffffffffffffff820361150157611500611495565b5b600182019050919050565b61151581611019565b82525050565b6000602082019050611530600083018461150c565b92915050565b600060608201905061154b600083018661150c565b6115586020830185611103565b6115656040830184611103565b949350505050565b600061157882611057565b915061158383611057565b925082820190508082111561159b5761159a611495565b5b9291505056fea2646970667358221220521ab59d1079d1cbe21afda060f5bab8015ed264752de43810998a5c6a2a979864736f6c63430008180033a2646970667358221220de1b693d36a7ae1a1ff06b903be26472e7f761cbd5662e6996223966d18d7c3764736f6c63430008180033",
  "linkReferences": {},
  "deployedLinkReferences": {}
}