{
  "_format": "hh-sol-artifact-1",
  "contractName": "FractionToken",
  "sourceName": "contracts/FractionalNFTCore.sol",
  "abi": [
    {
      "inputs": [
        {
          "internalType": "string",
          "name": "name",
          "type": "string"
        },
        {
          "internalType": "string",
          "name": "symbol",
          "type": "string"
        },
        {
          "internalType": "uint256",
          "name": "initialSupply",
          "type": "uint256"
        }
      ],
      "stateMutability": "nonpayable",
      "type": "constructor"
    },
    {
      "inputs": [
        {
          "internalType": "address",
          "name": "spender",
          "type": "address"
        },
        {
          "internalType": "uint256",
          "name": "allowance",
          "type": "uint256"
        },
        {
          "internalType": "uint256",
          "name": "needed",
          "type": "uint256"
        }
      ],
      "name": "ERC20InsufficientAllowance",
      "type": "error"
    },
    {
      "inputs": [
        {
          "internalType": "address",
          "name": "sender",
          "type": "address"
        },
        {
          "internalType": "uint256",
          "name": "balance",
          "type": "uint256"
        },
        {
          "internalType": "uint256",
          "name": "needed",
          "type": "uint256"
        }
      ],
      "name": "ERC20InsufficientBalance",
      "type": "error"
    },
    {
      "inputs": [
        {
          "internalType": "address",
          "name": "approver",
          "type": "address"
        }
      ],
      "name": "ERC20InvalidApprover",
      "type": "error"
    },
    {
      "inputs": [
        {
          "internalType": "address",
          "name": "receiver",
          "type": "address"
        }
      ],
      "name": "ERC20InvalidReceiver",
      "type": "error"
    },
    {
      "inputs": [
        {
          "internalType": "address",
          "name": "sender",
          "type": "address"
        }
      ],
      "name": "ERC20InvalidSender",
      "type": "error"
    },
    {
      "inputs": [
        {
          "internalType": "address",
          "name": "spender",
          "type": "address"
        }
      ],
      "name": "ERC20InvalidSpender",
      "type": "error"
    },
    {
      "anonymous": false,
      "inputs": [
        {
          "indexed": true,
          "internalType": "address",
          "name": "owner",
          "type": "address"
        },
        {
          "indexed": true,
          "internalType": "address",
          "name": "spender",
          "type": "address"
        },
        {
          "indexed": false,
          "internalType": "uint256",
          "name": "value",
          "type": "uint256"
        }
      ],
      "name": "Approval",
      "type": "event"
    },
    {
      "anonymous": false,
      "inputs": [
        {
          "indexed": true,
          "internalType": "address",
          "name": "from",
          "type": "address"
        },
        {
          "indexed": true,
          "internalType": "address",
          "name": "to",
          "type": "address"
        },
        {
          "indexed": false,
          "internalType": "uint256",
          "name": "value",
          "type": "uint256"
        }
      ],
      "name": "Transfer",
      "type": "event"
    },
    {
      "inputs": [
        {
          "internalType": "address",
          "name": "owner",
          "type": "address"
        },
        {
          "internalType": "address",
          "name": "spender",
          "type": "address"
        }
      ],
      "name": "allowance",
      "outputs": [
        {
          "internalType": "uint256",
          "name": "",
          "type": "uint256"
        }
      ],
      "stateMutability": "view",
      "type": "function"
    },
    {
      "inputs": [
        {
          "internalType": "address",
          "name": "spender",
          "type": "address"
        },
        {
          "internalType": "uint256",
          "name": "value",
          "type": "uint256"
        }
      ],
      "name": "approve",
      "outputs": [
        {
          "internalType": "bool",
          "name": "",
          "type": "bool"
        }
      ],
      "stateMutability": "nonpayable",
      "type": "function"
    },
    {
      "inputs": [
        {
          "internalType": "address",
          "name": "account",
          "type": "address"
        }
      ],
      "name": "balanceOf",
      "outputs": [
        {
          "internalType": "uint256",
          "name": "",
          "type": "uint256"
        }
      ],
      "stateMutability": "view",
      "type": "function"
    },
    {
      "inputs": [],
      "name": "decimals",
      "outputs": [
        {
          "internalType": "uint8",
          "name": "",
          "type": "uint8"
        }
      ],
      "stateMutability": "view",
      "type": "function"
    },
    {
      "inputs": [],
      "name": "getHolders",
      "outputs": [
        {
          "internalType": "address[]",
          "name": "",
          "type": "address[]"
        },
        {
          "internalType": "uint256[]",
          "name": "",
          "type": "uint256[]"
        }
      ],
      "stateMutability": "view",
      "type": "function"
    },
    {
      "inputs": [],
      "name": "name",
      "outputs": [
        {
          "internalType": "string",
          "name": "",
          "type": "string"
        }
      ],
      "stateMutability": "view",
      "type": "function"
    },
    {
      "inputs": [],
      "name": "symbol",
      "outputs": [
        {
          "internalType": "string",
          "name": "",
          "type": "string"
        }
      ],
      "stateMutability": "view",
      "type": "function"
    },
    {
      "inputs": [],
      "name": "totalSupply",
      "outputs": [
        {
          "internalType": "uint256",
          "name": "",
          "type": "uint256"
        }
      ],
      "stateMutability": "view",
      "type": "function"
    },
    {
      "inputs": [
        {
          "internalType": "address",
          "name": "to",
          "type": "address"
        },
        {
          "internalType": "uint256",
          "name": "amount",
          "type": "uint256"
        }
      ],
      "name": "transfer",
      "outputs": [
        {
          "internalType": "bool",
          "name": "",
          "type": "bool"
        }
      ],
      "stateMutability": "nonpayable",
      "type": "function"
    },
    {
      "inputs": [
        {
          "internalType": "address",
          "name": "from",
          "type": "address"
        },
        {
          "internalType": "address",
          "name": "to",
          "type": "address"
        },
        {
          "internalType": "uint256",
          "name": "amount",
          "type": "uint256"
        }
      ],
      "name": "transferFrom",
      "outputs": [
        {
          "internalType": "bool",
          "name": "",
          "type": "bool"
        }
      ],
      "stateMutability": "nonpayable",
      "type": "function"
    }
  ],
  "bytecode": "0x60806040523480156200001157600080fd5b50604051620020a0380380620020a08339818101604052810190620000379190620005c0565b828281600390816200004a91906200089b565b5080600490816200005c91906200089b565b5050506200007133826200013560201b60201c565b6005339080600181540180825580915050600190039060005260206000200160009091909190916101000a81548173ffffffffffffffffffffffffffffffffffffffff021916908373ffffffffffffffffffffffffffffffffffffffff1602179055506001600660003373ffffffffffffffffffffffffffffffffffffffff1673ffffffffffffffffffffffffffffffffffffffff16815260200190815260200160002060006101000a81548160ff02191690831515021790555050505062000ab9565b600073ffffffffffffffffffffffffffffffffffffffff168273ffffffffffffffffffffffffffffffffffffffff1603620001aa5760006040517fec442f05000000000000000000000000000000000000000000000000000000008152600401620001a19190620009c7565b60405180910390fd5b620001be60008383620001c260201b60201c565b5050565b600073ffffffffffffffffffffffffffffffffffffffff168373ffffffffffffffffffffffffffffffffffffffff1603620002185780600260008282546200020b919062000a13565b92505081905550620002ee565b60008060008573ffffffffffffffffffffffffffffffffffffffff1673ffffffffffffffffffffffffffffffffffffffff16815260200190815260200160002054905081811015620002a7578381836040517fe450d38c0000000000000000000000000000000000000000000000000000000081526004016200029e9392919062000a5f565b60405180910390fd5b8181036000808673ffffffffffffffffffffffffffffffffffffffff1673ffffffffffffffffffffffffffffffffffffffff16815260200190815260200160002081905550505b600073ffffffffffffffffffffffffffffffffffffffff168273ffffffffffffffffffffffffffffffffffffffff160362000339578060026000828254039250508190555062000386565b806000808473ffffffffffffffffffffffffffffffffffffffff1673ffffffffffffffffffffffffffffffffffffffff168152602001908152602001600020600082825401925050819055505b8173ffffffffffffffffffffffffffffffffffffffff168373ffffffffffffffffffffffffffffffffffffffff167fddf252ad1be2c89b69c2b068fc378daa952ba7f163c4a11628f55a4df523b3ef83604051620003e5919062000a9c565b60405180910390a3505050565b6000604051905090565b600080fd5b600080fd5b600080fd5b600080fd5b6000601f19601f8301169050919050565b7f4e487b7100000000000000000000000000000000000000000000000000000000600052604160045260246000fd5b6200045b8262000410565b810181811067ffffffffffffffff821117156200047d576200047c62000421565b5b80604052505050565b600062000492620003f2565b9050620004a0828262000450565b919050565b600067ffffffffffffffff821115620004c357620004c262000421565b5b620004ce8262000410565b9050602081019050919050565b60005b83811015620004fb578082015181840152602081019050620004de565b60008484015250505050565b60006200051e6200051884620004a5565b62000486565b9050828152602081018484840111156200053d576200053c6200040b565b5b6200054a848285620004db565b509392505050565b600082601f8301126200056a576200056962000406565b5b81516200057c84826020860162000507565b91505092915050565b6000819050919050565b6200059a8162000585565b8114620005a657600080fd5b50565b600081519050620005ba816200058f565b92915050565b600080600060608486031215620005dc57620005db620003fc565b5b600084015167ffffffffffffffff811115620005fd57620005fc62000401565b5b6200060b8682870162000552565b935050602084015167ffffffffffffffff8111156200062f576200062e62000401565b5b6200063d8682870162000552565b92505060406200065086828701620005a9565b9150509250925092565b600081519050919050565b7f4e487b7100000000000000000000000000000000000000000000000000000000600052602260045260246000fd5b60006002820490506001821680620006ad57607f821691505b602082108103620006c357620006c262000665565b5b50919050565b60008190508160005260206000209050919050565b60006020601f8301049050919050565b600082821b905092915050565b6000600883026200072d7fffffffffffffffffffffffffffffffffffffffffffffffffffffffffffffffff82620006ee565b620007398683620006ee565b95508019841693508086168417925050509392505050565b6000819050919050565b60006200077c62000776620007708462000585565b62000751565b62000585565b9050919050565b6000819050919050565b62000798836200075b565b620007b0620007a78262000783565b848454620006fb565b825550505050565b600090565b620007c7620007b8565b620007d48184846200078d565b505050565b5b81811015620007fc57620007f0600082620007bd565b600181019050620007da565b5050565b601f8211156200084b576200081581620006c9565b6200082084620006de565b8101602085101562000830578190505b620008486200083f85620006de565b830182620007d9565b50505b505050565b600082821c905092915050565b6000620008706000198460080262000850565b1980831691505092915050565b60006200088b83836200085d565b9150826002028217905092915050565b620008a6826200065a565b67ffffffffffffffff811115620008c257620008c162000421565b5b620008ce825462000694565b620008db82828562000800565b600060209050601f831160018114620009135760008415620008fe578287015190505b6200090a85826200087d565b8655506200097a565b601f1984166200092386620006c9565b60005b828110156200094d5784890151825560018201915060208501945060208101905062000926565b868310156200096d578489015162000969601f8916826200085d565b8355505b6001600288020188555050505b505050505050565b600073ffffffffffffffffffffffffffffffffffffffff82169050919050565b6000620009af8262000982565b9050919050565b620009c181620009a2565b82525050565b6000602082019050620009de6000830184620009b6565b92915050565b7f4e487b7100000000000000000000000000000000000000000000000000000000600052601160045260246000fd5b600062000a208262000585565b915062000a2d8362000585565b925082820190508082111562000a485762000a47620009e4565b5b92915050565b62000a598162000585565b82525050565b600060608201905062000a766000830186620009b6565b62000a85602083018562000a4e565b62000a94604083018462000a4e565b949350505050565b600060208201905062000ab3600083018462000a4e565b92915050565b6115d78062000ac96000396000f3fe608060405234801561001057600080fd5b506004361061009e5760003560e01c80635fe8e7cc116100665780635fe8e7cc1461015d57806370a082311461017c57806395d89b41146101ac578063a9059cbb146101ca578063dd62ed3e146101fa5761009e565b806306fdde03146100a3578063095ea7b3146100c157806318160ddd146100f157806323b872dd1461010f578063313ce5671461013f575b600080fd5b6100ab61022a565b6040516100b89190610fd2565b60405180910390f35b6100db60048036038101906100d6919061108d565b6102bc565b6040516100e891906110e8565b60405180910390f35b6100f96102df565b6040516101069190611112565b60405180910390f35b6101296004803603810190610124919061112d565b6102e9565b60405161013691906110e8565b60405180910390f35b610147610309565b604051610154919061119c565b60405180910390f35b610165610312565b604051610173929190611333565b60405180910390f35b6101966004803603810190610191919061136a565b610612565b6040516101a39190611112565b60405180910390f35b6101b461065a565b6040516101c19190610fd2565b60405180910390f35b6101e460048036038101906101df919061108d565b6106ec565b6040516101f191906110e8565b60405180910390f35b610214600480360381019061020f9190611397565b610716565b6040516102219190611112565b60405180910390f35b60606003805461023990611406565b80601f016020809104026020016040519081016040528092919081815260200182805461026590611406565b80156102b25780601f10610287576101008083540402835291602001916102b2565b820191906000526020600020905b81548152906001019060200180831161029557829003601f168201915b5050505050905090565b6000806102c761079d565b90506102d48185856107a5565b600191505092915050565b6000600254905090565b60006102f584846107b7565b61030084848461096c565b90509392505050565b60006012905090565b606080600060058054905067ffffffffffffffff81111561033657610335611437565b5b6040519080825280602002602001820160405280156103645781602001602082028036833780820191505090505b5090506000805b60058054905081101561048a5760066000600583815481106103905761038f611466565b5b9060005260206000200160009054906101000a900473ffffffffffffffffffffffffffffffffffffffff1673ffffffffffffffffffffffffffffffffffffffff1673ffffffffffffffffffffffffffffffffffffffff16815260200190815260200160002060009054906101000a900460ff161561047d5761044f6005828154811061041f5761041e611466565b5b9060005260206000200160009054906101000a900473ffffffffffffffffffffffffffffffffffffffff16610612565b83838151811061046257610461611466565b5b6020026020010181815250508180610479906114c4565b9250505b808060010191505061036b565b5060008167ffffffffffffffff8111156104a7576104a6611437565b5b6040519080825280602002602001820160405280156104d55781602001602082028036833780820191505090505b50905060008267ffffffffffffffff8111156104f4576104f3611437565b5b6040519080825280602002602001820160405280156105225781602001602082028036833780820191505090505b50905060005b83811015610603576005818154811061054457610543611466565b5b9060005260206000200160009054906101000a900473ffffffffffffffffffffffffffffffffffffffff1683828151811061058257610581611466565b5b602002602001019073ffffffffffffffffffffffffffffffffffffffff16908173ffffffffffffffffffffffffffffffffffffffff16815250508481815181106105cf576105ce611466565b5b60200260200101518282815181106105ea576105e9611466565b5b6020026020010181815250508080600101915050610528565b50818195509550505050509091565b60008060008373ffffffffffffffffffffffffffffffffffffffff1673ffffffffffffffffffffffffffffffffffffffff168152602001908152602001600020549050919050565b60606004805461066990611406565b80601f016020809104026020016040519081016040528092919081815260200182805461069590611406565b80156106e25780601f106106b7576101008083540402835291602001916106e2565b820191906000526020600020905b8154815290600101906020018083116106c557829003601f168201915b5050505050905090565b6000806106f761079d565b905061070381856107b7565b61070d848461099b565b91505092915050565b6000600160008473ffffffffffffffffffffffffffffffffffffffff1673ffffffffffffffffffffffffffffffffffffffff16815260200190815260200160002060008373ffffffffffffffffffffffffffffffffffffffff1673ffffffffffffffffffffffffffffffffffffffff16815260200190815260200160002054905092915050565b600033905090565b6107b283838360016109be565b505050565b600660008273ffffffffffffffffffffffffffffffffffffffff1673ffffffffffffffffffffffffffffffffffffffff16815260200190815260200160002060009054906101000a900460ff1615801561083e5750600073ffffffffffffffffffffffffffffffffffffffff168173ffffffffffffffffffffffffffffffffffffffff1614155b156108ff576005819080600181540180825580915050600190039060005260206000200160009091909190916101000a81548173ffffffffffffffffffffffffffffffffffffffff021916908373ffffffffffffffffffffffffffffffffffffffff1602179055506001600660008373ffffffffffffffffffffffffffffffffffffffff1673ffffffffffffffffffffffffffffffffffffffff16815260200190815260200160002060006101000a81548160ff0219169083151502179055505b600061090a83610612565b03610968576000600660008473ffffffffffffffffffffffffffffffffffffffff1673ffffffffffffffffffffffffffffffffffffffff16815260200190815260200160002060006101000a81548160ff0219169083151502179055505b5050565b60008061097761079d565b9050610984858285610b95565b61098f858585610c29565b60019150509392505050565b6000806109a661079d565b90506109b3818585610c29565b600191505092915050565b600073ffffffffffffffffffffffffffffffffffffffff168473ffffffffffffffffffffffffffffffffffffffff1603610a305760006040517fe602df05000000000000000000000000000000000000000000000000000000008152600401610a27919061151b565b60405180910390fd5b600073ffffffffffffffffffffffffffffffffffffffff168373ffffffffffffffffffffffffffffffffffffffff1603610aa25760006040517f94280d62000000000000000000000000000000000000000000000000000000008152600401610a99919061151b565b60405180910390fd5b81600160008673ffffffffffffffffffffffffffffffffffffffff1673ffffffffffffffffffffffffffffffffffffffff16815260200190815260200160002060008573ffffffffffffffffffffffffffffffffffffffff1673ffffffffffffffffffffffffffffffffffffffff168152602001908152602001600020819055508015610b8f578273ffffffffffffffffffffffffffffffffffffffff168473ffffffffffffffffffffffffffffffffffffffff167f8c5be1e5ebec7d5bd14f71427d1e84f3dd0314c0f7b2291e5b200ac8c7c3b92584604051610b869190611112565b60405180910390a35b50505050565b6000610ba18484610716565b90507fffffffffffffffffffffffffffffffffffffffffffffffffffffffffffffffff8114610c235781811015610c13578281836040517ffb8f41b2000000000000000000000000000000000000000000000000000000008152600401610c0a93929190611536565b60405180910390fd5b610c22848484840360006109be565b5b50505050565b600073ffffffffffffffffffffffffffffffffffffffff168373ffffffffffffffffffffffffffffffffffffffff1603610c9b5760006040517f96c6fd1e000000000000000000000000000000000000000000000000000000008152600401610c92919061151b565b60405180910390fd5b600073ffffffffffffffffffffffffffffffffffffffff168273ffffffffffffffffffffffffffffffffffffffff1603610d0d5760006040517fec442f05000000000000000000000000000000000000000000000000000000008152600401610d04919061151b565b60405180910390fd5b610d18838383610d1d565b505050565b600073ffffffffffffffffffffffffffffffffffffffff168373ffffffffffffffffffffffffffffffffffffffff1603610d6f578060026000828254610d63919061156d565b92505081905550610e42565b60008060008573ffffffffffffffffffffffffffffffffffffffff1673ffffffffffffffffffffffffffffffffffffffff16815260200190815260200160002054905081811015610dfb578381836040517fe450d38c000000000000000000000000000000000000000000000000000000008152600401610df293929190611536565b60405180910390fd5b8181036000808673ffffffffffffffffffffffffffffffffffffffff1673ffffffffffffffffffffffffffffffffffffffff16815260200190815260200160002081905550505b600073ffffffffffffffffffffffffffffffffffffffff168273ffffffffffffffffffffffffffffffffffffffff1603610e8b5780600260008282540392505081905550610ed8565b806000808473ffffffffffffffffffffffffffffffffffffffff1673ffffffffffffffffffffffffffffffffffffffff168152602001908152602001600020600082825401925050819055505b8173ffffffffffffffffffffffffffffffffffffffff168373ffffffffffffffffffffffffffffffffffffffff167fddf252ad1be2c89b69c2b068fc378daa952ba7f163c4a11628f55a4df523b3ef83604051610f359190611112565b60405180910390a3505050565b600081519050919050565b600082825260208201905092915050565b60005b83811015610f7c578082015181840152602081019050610f61565b60008484015250505050565b6000601f19601f8301169050919050565b6000610fa482610f42565b610fae8185610f4d565b9350610fbe818560208601610f5e565b610fc781610f88565b840191505092915050565b60006020820190508181036000830152610fec8184610f99565b905092915050565b600080fd5b600073ffffffffffffffffffffffffffffffffffffffff82169050919050565b600061102482610ff9565b9050919050565b61103481611019565b811461103f57600080fd5b50565b6000813590506110518161102b565b92915050565b6000819050919050565b61106a81611057565b811461107557600080fd5b50565b60008135905061108781611061565b92915050565b600080604083850312156110a4576110a3610ff4565b5b60006110b285828601611042565b92505060206110c385828601611078565b9150509250929050565b60008115159050919050565b6110e2816110cd565b82525050565b60006020820190506110fd60008301846110d9565b92915050565b61110c81611057565b82525050565b60006020820190506111276000830184611103565b92915050565b60008060006060848603121561114657611145610ff4565b5b600061115486828701611042565b935050602061116586828701611042565b925050604061117686828701611078565b9150509250925092565b600060ff82169050919050565b61119681611180565b82525050565b60006020820190506111b1600083018461118d565b92915050565b600081519050919050565b600082825260208201905092915050565b6000819050602082019050919050565b6111ec81611019565b82525050565b60006111fe83836111e3565b60208301905092915050565b6000602082019050919050565b6000611222826111b7565b61122c81856111c2565b9350611237836111d3565b8060005b8381101561126857815161124f88826111f2565b975061125a8361120a565b92505060018101905061123b565b5085935050505092915050565b600081519050919050565b600082825260208201905092915050565b6000819050602082019050919050565b6112aa81611057565b82525050565b60006112bc83836112a1565b60208301905092915050565b6000602082019050919050565b60006112e082611275565b6112ea8185611280565b93506112f583611291565b8060005b8381101561132657815161130d88826112b0565b9750611318836112c8565b9250506001810190506112f9565b5085935050505092915050565b6000604082019050818103600083015261134d8185611217565b9050818103602083015261136181846112d5565b90509392505050565b6000602082840312156113805761137f610ff4565b5b600061138e84828501611042565b91505092915050565b600080604083850312156113ae576113ad610ff4565b5b60006113bc85828601611042565b92505060206113cd85828601611042565b9150509250929050565b7f4e487b7100000000000000000000000000000000000000000000000000000000600052602260045260246000fd5b6000600282049050600182168061141e57607f821691505b602082108103611431576114306113d7565b5b50919050565b7f4e487b7100000000000000000000000000000000000000000000000000000000600052604160045260246000fd5b7f4e487b7100000000000000000000000000000000000000000000000000000000600052603260045260246000fd5b7f4e487b7100000000000000000000000000000000000000000000000000000000600052601160045260246000fd5b60006114cf82611057565b91507fffffffffffffffffffffffffffffffffffffffffffffffffffffffffffffffff820361150157611500611495565b5b600182019050919050565b61151581611019565b82525050565b6000602082019050611530600083018461150c565b92915050565b600060608201905061154b600083018661150c565b6115586020830185611103565b6115656040830184611103565b949350505050565b600061157882611057565b915061158383611057565b925082820190508082111561159b5761159a611495565b5b9291505056fea2646970667358221220521ab59d1079d1cbe21afda060f5bab8015ed264752de43810998a5c6a2a979864736f6c63430008180033",
  "linkReferences": {},
  "deployedLinkReferences": {}
}